:020000040800F2
:1000000000200020D5290008252A0008252A0008FC
:1000100000000000000000000000000000000000E0
:10002000000000000000000000000000252A000879
:100030000000000000000000252A0008252A000812
:10004000252A0008252A00088D2800080000000045
:10005000252A0008252A0008252A0008252A000844
:10006000252A0008252A0008252A0008252A000834
:10007000252A0008252A0008252A0008252A000824
:10008000252A0008252A0008252A0008000000006B
:10009000951F0008252A0008252A0008252A00089F
:1000A000252A0008252A0008252A0008252A0008F4
:1000B000252A000800000000252A0008252A00083B
:1000C00010B5064C2378002B07D1054B002B02D02E
:1000D000044800E000BF0123237010BDB8000020D9
:1000E0000000000058430008044B10B5002B03D05B
:1000F0000349044800E000BF10BDC04600000000F6
:10010000BC0000205843000802780B78002A03D076
:10011000013001319A42F7D0D01A70470023C25CF7
:100120000133002AFBD1581E7047000003B471460A
:10013000490840004900095E49008E4403BC7047ED
:10014000002243088B4274D303098B425FD3030A16
:100150008B4244D3030B8B4228D3030C8B420DD329
:10016000FF22090212BA030C8B4202D312120902B7
:1001700065D0030B8B4219D300E0090AC30B8B42F5
:1001800001D3CB03C01A5241830B8B4201D38B03A3
:10019000C01A5241430B8B4201D34B03C01A524148
:1001A000030B8B4201D30B03C01A5241C30A8B428B
:1001B00001D3CB02C01A5241830A8B4201D38B0276
:1001C000C01A5241430A8B4201D34B02C01A52411A
:1001D000030A8B4201D30B02C01A5241CDD2C3098C
:1001E0008B4201D3CB01C01A524183098B4201D308
:1001F0008B01C01A524143098B4201D34B01C01AF3
:10020000524103098B4201D30B01C01A5241C3086A
:100210008B4201D3CB00C01A524183088B4201D3D9
:100220008B00C01A524143088B4201D34B00C01AC5
:100230005241411A00D20146524110467047FFE731
:1002400001B5002000F0F0F802BDC0460029F7D04B
:1002500076E7704703460B437FD4002243088B4266
:1002600074D303098B425FD3030A8B4244D3030B3D
:100270008B4228D3030C8B420DD3FF22090212BA02
:10028000030C8B4202D31212090265D0030B8B427E
:1002900019D300E0090AC30B8B4201D3CB03C01A68
:1002A0005241830B8B4201D38B03C01A5241430B43
:1002B0008B4201D34B03C01A5241030B8B4201D333
:1002C0000B03C01A5241C30A8B4201D3CB02C01A9E
:1002D0005241830A8B4201D38B02C01A5241430A16
:1002E0008B4201D34B02C01A5241030A8B4201D305
:1002F0000B02C01A5241CDD2C3098B4201D3CB01AC
:10030000C01A524183098B4201D38B01C01A52415A
:1003100043098B4201D34B01C01A524103098B425E
:1003200001D30B01C01A5241C3088B4201D3CB0049
:10033000C01A524183088B4201D38B00C01A52412C
:1003400043088B4201D34B00C01A5241411A00D2DC
:1003500001465241104670475DE0CA0F00D0494245
:10036000031000D34042534000229C4603098B42B5
:100370002DD3030A8B4212D3FC22890112BA030A3D
:100380008B420CD3890192118B4208D389019211BF
:100390008B4204D389013AD0921100E08909C30944
:1003A0008B4201D3CB01C01A524183098B4201D346
:1003B0008B01C01A524143098B4201D34B01C01A31
:1003C000524103098B4201D30B01C01A5241C308A9
:1003D0008B4201D3CB00C01A524183088B4201D318
:1003E0008B00C01A5241D9D243088B4201D34B0033
:1003F000C01A5241411A00D20146634652415B1075
:10040000104601D34042002B00D549427047634655
:100410005B1000D3404201B5002000F005F802BD9A
:100420000029F8D016E770477047C046F0B5CE46B1
:100430009946030C9C46130447461B0C1D000E00F6
:1004400061460404240C80B50700100C4B4365433F
:10045000414360432C0CC01820188C46834203D9BA
:1004600080235B029846C444494679435643030CB3
:100470002D042D0C8919634400044019C918C0BC0F
:10048000B946B046F0BDC0469E2110B5C905041C52
:1004900001F018FB002803D1201C00F015FC10BD52
:1004A0009E21201CC90500F06FFA00F00DFC80238E
:1004B0001B069C466044F2E7F0B54F464646D646DA
:1004C0004502C0B547000C1C6D0A3F0EC60F002F39
:1004D00000D16FE0FF2F00D174E000238022994605
:1004E0009A46ED00D20415437F3F63025B0A9846AB
:1004F00063001B0EE40F002B4DD0FF2B45D042466E
:100500008021D200C9041143884600227F3B31007C
:10051000FF1A4B466140C9B20F2B00D9B8E07048B2
:100520009B00C3589F4600239846260045469246A6
:100530005346022B00D18DE0032B00D1A1E0012B0B
:1005400018D03B007F33002B6DDD6A0704D00F22EB
:100550002A40042A00D004352A0103D5614B1D40EE
:100560003B008033FE2B00DD74E0AA01520AD8B2B2
:1005700002E00E0000200022C005F60710433043C1
:10058000E0BCBA46B146A846F0BD4346002B3FD179
:100590000222FF3F03E04346002B2DD10122310010
:1005A0004B466140C9B213430F2B38D84E489B00CD
:1005B000C3589F46002D13D104239946033B0027BF
:1005C0009A4692E7002D05D108239946063BFF275E
:1005D0009A468AE70C239946093BFF279A4684E707
:1005E000280001F079FA7627431F9D4000237F42BF
:1005F00099469A463F1A78E7404601F06DFA42461E
:10060000431F9A4076235B4290461B1A00227EE7E6
:1006100003234A461A439146FC33032277E70E0030
:10062000FF200022A8E70122D31A1B2BA2DC9E3751
:100630002A00BD40DA406B1E9D4115436A0704D075
:100640000F222A40042A00D004356A0144D5012033
:10065000002291E7FF2000228EE780220026FF2063
:10066000D20389E7002398468022D203154208D09E
:100670004346134205D11A4352022600FF20520A74
:100680007AE78022D2032A435202FF20520A73E7FC
:1006900042466B015501AB421AD21B200022013F9A
:1006A00001261C0052005B00002C01DB9D4201D89A
:1006B0005B1B324301380028F3D1581E834113439A
:1006C0001D003B007F330E00002B00DD3DE7AAE755
:1006D0001A2001225B1BE3E7AA010020520A4BE724
:1006E0007C430008FFFFFFF7BC43000843025B0A9E
:1006F000F0B54F4646469946D646C30F4500984644
:10070000C0B54B460F1C2D0E00D1CBE0FF2D00D104
:10071000CFE08022DB00D2041A430023914600265A
:100720009A467F3D7C027B00640A1B0EFF0F002B64
:1007300000D1A9E0FF2B11D08022E400D2041443A1
:1007400042467F3B5B197A400020D2B25D1C0A2EE4
:1007500013DD3A000B2E47D047463FE02B00FF3316
:10076000002C1ED102221643424601357A40D2B2F5
:10077000FF350A2E00DDE4E00220022E1CDC013EE3
:10078000012E42D802283DD0012866D10020002148
:10079000C0050843D2071043E0BCBA46B146A8469C
:1007A000F0BD03221643424601357A40D2B2FF35EE
:1007B0000A2E00DDE4E003200121B140A626F60068
:1007C00031420AD19026B600314216D1B93EFF3EE1
:1007D0000E421AD0A146824600E0170053463A0066
:1007E000022B0FD04C4650460328CDD18021C9039F
:1007F00021434902FF20490ACAE780210022FF2045
:10080000C903C5E7FF200021C2E7200C49462404A4
:10081000240C27000E0C0904090C74434F43464373
:100820004843390C001909188C4203D98020400232
:10083000844666443F0408043F0CC0198401671EC7
:10084000BC41090C800E8919044389010C4309013C
:1008500071D5012361081C400C432B007F33002B12
:1008600051DD610704D00F212140042900D0043458
:10087000210103D5434B1C402B008033FE2BC1DCF0
:10088000A101490AD8B283E7002C2CD101234246AA
:100890001E432B007A400120D2B25D1C0A2E00DDDF
:1008A00057E76AE7002B10D10123042600259A465A
:1008B00038E7002B04D102230826FF259A4631E7AA
:1008C00003230C26FF259A462CE7484601F004F93D
:1008D0004A46431F76259A4000236D4291460026E2
:1008E0009A462D1A1EE7200001F0F6F84246431FF3
:1008F0009C402B1A763B7A400020D2B25D1C0A2E17
:1009000000DD26E739E70121CB1A1B2B00DD3DE78F
:100910009E352100AC40D940631E9C4121434B07CA
:1009200004D00F230B40042B00D004314B0104D51D
:10093000012000212CE71D008FE789010020490AD2
:1009400026E702230F2E0CD180214B46C9030B4210
:100950000DD00C420BD1214349023A00FF20490A35
:1009600016E70B2E00D0F7E6A1469A4636E780211F
:100970004B46C903194349024246FF20490A07E78B
:100980000323DFE7FFFFFFF7F0B5C64643025B0A2C
:100990004500DA00C40F48024F009446420A1E0088
:1009A000904600B52D0E3F0EC90F8009FF2F59D07C
:1009B000012251408C4239D0EA1B002A58DD002F19
:1009C00068D0FF2D00D1D1E08023DB0418431B2A1F
:1009D00000DCE3E001236246D31A5A0100D4ACE004
:1009E0009B019E09300001F077F833000538834001
:1009F000854200DCC6E0B24A2D1A13405A0704D0E3
:100A00000F221A40042A00D004335A0100D497E080
:100A10006A1CFE2D00D184E09B015E0AD2B2D00593
:100A20003043E407204380BCB846F0BDEA1B002AEF
:100A300041DD002F6BD0FF2D00D197E08023DB0438
:100A400018431B2A00DCCCE0012363445A0174D50F
:100A50000135FF2D65D001229A491A405B080B40F1
:100A60001343CBE700281FD08C4222D02A00FF3A44
:100A7000002A35D07A1B002D00D099E06346002B68
:100A800000D1DDE0531E012A00D105E1FF2A6BD021
:100A90001A0094E0002873D0511E012A00D1DFE033
:100AA000FF2A63D00A0092E701225140A14200D000
:100AB00082E72A00FF3A002A36D07A1B002D00D1A7
:100AC000AAE0FF2F00D1DAE080236146DB0419435E
:100AD0008C461B2A00DCD4E001233D001B18B5E73F
:100AE000FE276A1C174271D1002D00D09EE063469C
:100AF000002B00D1D5E00022002800D18FE71B1A7F
:100B00005E0100D4D6E063460C00C31A76E70028E5
:100B100036D0511E012A00D19AE0FF2A26D00A00C1
:100B20008FE7FF2200267AE7FE276A1C174262D071
:100B3000FF2AF6D01500604443085A0700D05FE74B
:100B4000DB08FF2D12D05B025E0AEAB267E762465D
:100B5000002A00D193E0002808D08022D20313425B
:100B600004D04046104201D10C004346002BD8D09F
:100B70008026F6031E437602FF22760A4FE743469D
:100B80001500DEE72022401B0130121A19009340A5
:100B9000C1405A1E934100250B432FE720239B1A87
:100BA000010098400300D1405A1E93410B4312E7C5
:100BB000FF2FD9D080236446DB041C43A4461B2AA4
:100BC00052DD01230C003D00C31A06E763461E1ADE
:100BD000730139D4002E00D004E70024002200263F
:100BE0001DE720239B1A010098400300D1405A1EA4
:100BF00093410B4329E7002DA9D16346002B56D022
:100C00000022002800D10AE7030063445A0194D56A
:100C10002B4A0135134090E76346002BAFD0531E9B
:100C2000012A15D0FF2A2AD01A0052E76246002A6C
:100C300091D1002898D180260024FF22F603EEE609
:100C40000C00434615007CE763460C00C61AC9E653
:100C50000300634401255A0100D46EE70225FAE639
:100C6000634601251B1AB8E664462023D4409B1A2C
:100C700062469A4013005A1E93412343A2E743461B
:100C800074E761462023D1409B1A62469A401300C4
:100C90005A1E93410B4320E763460C000125C31AFB
:100CA0009BE6002899D00C0046460022B7E646464F
:100CB0000022B4E6002B00D03FE700240026AEE679
:100CC000FFFFFFFBFFFFFF7D41024200C30F490A08
:100CD0000020120E7E2A03DD9D2A02DD094A9818A3
:100CE0007047802000040143952A07DC9620821A71
:100CF000D1404842002BF3D10800F1E7963A9140E9
:100D0000F7E7C046FFFFFF7F70B5041E0ED000F06E
:100D1000E3FE9E2301001B1A962B0CDC08282CD026
:100D200008398C406402640AD8B201E00020002433
:100D3000C005204370BD992B0ADD020020001B3244
:100D400090400200501E82410520401AC4401443C6
:100D5000052916DC22000F480240650709D00F253F
:100D60002C40042C05D00432540102D59F230240AC
:100D70005B1A9201540AD8B2DAE764029620640A38
:100D8000D6E74A1F94402200024802406507F0D08F
:100D9000E5E7C046FFFFFFFBF0B557464E46454628
:100DA000DE46E0B50C031F004B008146924605006D
:100DB00085B0240B5B0DCE0F002B00D152E1D24A3F
:100DC000934200D16EE1420FE400144380221204EA
:100DD00022439046CD4AC50093469B440023994642
:100DE00000933C037B005046240B5B0DFF0F002B50
:100DF00000D11AE1C44A934200D15EE1420FE400FF
:100E00002243802424041443C04AC10094465A4615
:100E10006344D31A9B46002033007B409A464B46DE
:100E20000F2B27D8BA4A9B00D3589F46B246009B47
:100E3000022B16D0032B00D187E2012B00D0D5E086
:100E40000023002200251B0513435246D2071343FB
:100E50002800190005B0F0BCBB46B246A946A04622
:100E6000F0BD00220025A84BEDE7BA46A0460D00D4
:100E70000090DCE7444500D2C4E100D1BFE101238A
:100E80005B429C462E0040460025E34423020C0EA4
:100E90001C431B0C994623040A021F0C494600926E
:100EA0000197FFF7D3F902007A430B04310C804617
:100EB00019438A4207D901235B429C460919E04441
:100EC0008C4200D801E2881A4946FFF7BFF9019A1F
:100ED000360442430904360C03000E43B24204D9DF
:100EE0003619013BB44200D8E9E1B01A4246009EEF
:100EF00012041A43330C1F00110C90460293130482
:100F00003204160C32001B0C5A4303967B434E43AB
:100F10007943170CBC469B1963449E4203D9802633
:100F20007602B44661441E0C711816041B04360C7C
:100F30009E19884202D312D1B54210D243465A1E9E
:100F4000009B9C4665441F009D429B415B421B19D0
:100F5000C018844200D29EE100D199E19046AE1BB8
:100F6000B542AD41401A6D42401B844200D1D2E1EE
:100F70004946FFF76BF9019A0B044243310C050017
:100F800019438A4200D96CE1881A4946FFF75EF995
:100F9000019A360442430904360C03000E43B24260
:100FA00000D953E10398B61A02002D041D43029F95
:100FB0002B041B0C5A437B439C46290C4843130CBF
:100FC000844463447943984203D980204002844694
:100FD0006144180C12041B04120C40189B18864222
:100FE00000D200E100D1FBE001231D43494B5B44EB
:100FF000002B00DCAAE06A0700D03DE1E908424688
:10100000D20106D54246444B1A4080239046DB006D
:101010005B44424A934200DD23E742465B055507A5
:1010200052020D43120B5B0D0DE75146214300D1D7
:101030007CE0002C00D1FBE0200000F04DFD020020
:101040000B3A1D239B1A52460100DA4053460839D9
:101050008B408C4019001443314B58449B468344C9
:101060000020D9E603002343984644D0002C00D149
:10107000CFE0200000F030FD010002000B391D23FD
:101080005B1A49461000D940083884400B004D4691
:10109000234398468540234B9B1A9B460023994641
:1010A00000939EE60200224390461DD108229B46F3
:1010B000022300259146009393E65146214309D12E
:1010C00002234A461A43184B91469C4600240220AC
:1010D000E344A1E603234A461A43134B91469C4638
:1010E00051460320E34497E60C229B460323A04687
:1010F0009146009375E60423994600239B460133ED
:10110000002500936DE6C046FF07000001FCFFFFCD
:10111000FC430008FF030000FFFFFFFEFE07000086
:10112000F30300000DFCFFFF01F8FFFF4A46012317
:101130001A439146002401206EE6002380229A463D
:101140000025884B12037EE601256D420122D21A4A
:10115000382A00DD74E61F2A00DCBDE01F21494269
:10116000CB1A4146D9400B00202A04D041467E4A82
:101170005A4491400D4329004A1E914119430723C7
:101180001D0000220D400B4200D1D0E00F220023B1
:101190000A40042A00D1C7E00A1D8A428941494217
:1011A0005B1811001A0200D4BEE0012300220025C2
:1011B00049E6802243461203134208D0144206D166
:1011C00022431203BA460D00664B120B3BE6802207
:1011D000434612031A431203B246624B120B32E625
:1011E000002B00D102E7A6196A1EA64200D289E0B0
:1011F000864200D29FE000D1AFE01500F4E6A9429C
:1012000000D93CE64346DE0758086B081E43ED074D
:101210003CE600F061FC01000200153120321C297F
:1012200000DC2CE74B46083883400025984632E71F
:1012300000F052FC03001A00153220301C2A00DC9A
:10124000FFE65446083B00219C4005E73619013B68
:10125000B44200D9A6E6B24200D8A3E6831E3619EE
:10126000A0E60919013D8C4200D98DE68A4200D8DA
:101270008AE6851E091987E60F222A40042A00D132
:10128000BCE6291DA942AD416D42C908A844B6E695
:10129000AF4200D962E6814204D800D05EE6AE4299
:1012A00000D85BE602235B429C46009BE0449C46E0
:1012B00065449D429B415B421B19C0184FE6B242F8
:1012C00000D812E6831E36190FE68A4200D8FAE5E6
:1012D000831E98460919F6E5244B28005B444146D5
:1012E0009D409940D0406B1E9D4143460143294398
:1012F000D3404A0700D155E70F220A40042A00D004
:101300004AE74FE71500864200D06DE6009A9A4200
:1013100000D069E66AE6164B5B44002B00DC13E75D
:1013200001250021A8446AE65D075B021A0BC90883
:1013300000230D4387E50099023D4A008A42BF41E0
:101340007F423F19F6190092DDE7802243461203DF
:101350001A431203034B120B75E500999942EAD325
:101360001500D3E7FF0700003E0400001E04000044
:10137000FF030000F0B54546DE4657464E46E0B551
:101380001F000B031B0B9B464D00CB0F0400914627
:10139000984687B06D0D00D1CDE1CE4B9D4200D176
:1013A000E9E15A46430FD2001343802212041A4344
:1013B000C3009A46C84B93469C46002300266544CA
:1013C00000933C037B004846240B5B0DFF0F002B72
:1013D00000D189E1BF4A934219D0420FE400224371
:1013E000802424041443BC4A0021944642466344AA
:1013F0005B190193019B7A400133C000D2B2029382
:101400000A2E1CDD3A000B2E5ED0474656E04946B8
:10141000B04B2143EB18019300292AD180200222EE
:1014200000012B0084461643424663447A40D2B200
:1014300002930A2E00DD31E2002000240221022E58
:1014400026DC013E012E52D802294CD0012900D0C1
:1014500018E10023002400251B052343D207134372
:101460002800190007B0F0BCBB46B246A946A0460A
:10147000F0BD8021032209012B008C461643424611
:1014800063447A40D2B202930A2E00DD28E203219F
:101490000125B540AC46A6266346F60035403342EA
:1014A0000BD19026B600334218D1B93EFF3E1E4202
:1014B0001DD0A3468246009100E0170000993A0033
:1014C000022910D05C4650460329BFD180231B035C
:1014D0001C43240305007F4B240BBDE7802400221E
:1014E0007C4B2403B8E7002400257A4BB4E753462D
:1014F0001E04360C1F0C3300010C0004000C434387
:10150000984603007B43994633004B439C46434631
:101510000D001B0C9A467D43CC44D4440095E14514
:1015200004D980235B0299464D44009563461B0C09
:101530001D0063461B049C4643461B041B0C984637
:10154000634643440393230C984633002404240C3D
:1015500063439C4623007B43994643465E435F4377
:101560004E446346B2461E0C5644B14503D980230F
:101570005B0299464F44330C99463B004B4405931C
:101580006346AC461F043F0C3604F619B444634668
:1015900004935B461B0C9C465B461F043F0C3B00C0
:1015A00043439946634643439A464B4660461B0C69
:1015B0009B4648437943514459448A4503D9802383
:1015C0005B029A4650440B0C9A464B461B041B0C7C
:1015D00099463B006343090445464944994663469E
:1015E0005C436B439C464B461B0C98466F433F192C
:1015F00047445044BC4203D980235B029846C4440C
:10160000049B009D98464544B542B64173429846B6
:101610004B461E04059B3C049946360CA4194C44C9
:10162000A14683466E18C1448E428941CB445D4633
:1016300049426D189C42A441C1459B41834580416C
:101640008D4289415B4264421C434042039B4942B4
:10165000014370023F0C1843E419471EB841641857
:101660006444F60D61023043EC0D6E020C433043CE
:10167000C90100D4F1E00121430801400B43E00718
:10168000184364081549029B8C466344002B00DC18
:1016900097E0410709D00F210140042905D0011D21
:1016A00081428041404224180800E10106D5802192
:1016B000C9008C460A4B1C40029B634409498B427B
:1016C00000DD10E76107C50864025B050D43240BCC
:1016D0005B0DC1E6FF07000001FCFFFFFF030000F8
:1016E000FFFFFFFEFE0700004B46234359D0002CAE
:1016F00000D1A3E0200000F0EFF9010003000B3956
:101700001D22521A49461800D1404A4608388240E4
:10171000844010000C43744AEB1A944642466344DA
:101720000193019B7A4001330021D2B202930A2E29
:1017300000DD67E683E65B4603439A462AD05B46B4
:10174000002B6DD0584600F0C7F9010003000B399B
:101750001D22521A210018005D46D14008388540EC
:101760000A0084402A439346A2465F4D0026ED1AA4
:101770000023009325E65B4603439A4605D10023E8
:101780009B460233082600931BE6032382460C2661
:10179000009316E600239B460133042600250093A0
:1017A0000FE64246013301951E43019B7A40013307
:1017B000002400200121D2B202930A2E00DD21E68E
:1017C0003DE60121C91A382900DD42E61F2947DD1F
:1017D0001F2625007642F31ADD402B00202905D074
:1017E0004249029D8C466544AC402043411E8841DD
:1017F000184307231D000024054003424AD00F234D
:1018000000240340042B42D0031D83428041404208
:101810002418180023023AD50123002400251BE6D2
:1018200000F05AF901000300153120331C298FDD27
:101830000838002284409246A34696E700F04CF90F
:1018400001000300153120331C2900DC58E7020099
:101850004C46083A002094405DE7019B029311E753
:10186000234B26009C460300029DCB406544AE40BE
:101870001E430300AB40581E834130001843CC4048
:101880004307C7D00F230340042BBDD1C2E7650730
:101890006402240BC00800230543DDE50025022374
:1018A0000F2E0CD180245B46240323420ED021420C
:1018B0000CD10C4324033A000E4B240BCCE50B2E29
:1018C00000D0A2E58B46AA460093F7E580245B464C
:1018D00024031C43240342465546064B240BBBE518
:1018E0004D4621000323DBE70DFCFFFF3E04000013
:1018F0001E040000FF07000070B5002816D0C317B3
:10190000C5185D40C40F280000F0E6F8114B1B1A03
:101910000A2816DC02002E00153296400B22121AFD
:10192000D5405B052D032D0B5B0D03E00024002348
:10193000002500261B052B43E40723433000190034
:1019400070BD0B3885405B052D0300262D0B5B0D0C
:10195000F0E7C0461E0400000200F0B54B000D0386
:10196000400F5B0DCC0F6D0A3A490543581CD70058
:1019700008420AD038495918FE2916DDFF200022F6
:10198000C0051043E4072043F0BD002B06D13D43C2
:1019900026D005229201520AD8B2F1E72F43EDD0AA
:1019A0008022D203FF202A43EAE700291BDD9201AF
:1019B000501E8241ED007F0F2A433A43530747D020
:1019C0000F231340042B00D004328023DB04134088
:1019D0003ED0481CFE29D1D09201520AC0B2CFE7B6
:1019E00000200022CCE70A0017322FDB80263604C5
:1019F0002E431E256D1A1F2D11DD02225242521A4E
:101A00003100D140202D04D0144A944663449E40B6
:101A100037433A00531E9A410A430021CEE7104A49
:101A200038009446634498403A00411E88419E40E5
:101A3000EA403043024300215307C1D18021130003
:101A4000C90401200B400A42C6D1A3E70023A0E746
:101A50000B009FE7FE07000080FCFFFFA2FCFFFFDA
:101A600082FCFFFF844608006146FFE71FB500F0D7
:101A7000BDF8002801D40021C8421FBD10B500F0F8
:101A800049F84042013010BD10B500F0AFF8002811
:101A900001DB002010BD012010BDC04610B500F0D4
:101AA000A5F8002801DD002010BD012010BDC046B2
:101AB00010B500F055F8002801DC002010BD012011
:101AC00010BDC04610B500F04BF8002801DA002028
:101AD00010BD012010BDC0461C2101231B049842EB
:101AE00001D3000C10391B0A984201D3000A0839AF
:101AF0001B09984201D30009043902A2105C401866
:101B00007047C04604030202010101010000000009
:101B10000000000070B5420045024E024C00C30FA9
:101B20006D0A0120120E760A240EC90FFF2A06D074
:101B3000FF2C03D0A24201D1B54206D070BD002DCA
:101B4000FCD1FF2CFAD1002EF8D18B4206D0012017
:101B5000002AF3D12800431E9841EFE70020EDE76B
:101B600070B5420045024E024C00C30F6D0A120EC2
:101B7000760A240EC80FFF2A1BD0FF2C0ED0002A95
:101B80001BD1002C01D1002E1CD0002D0CD0834283
:101B90001CD00221581E0840013870BD002E22D1F1
:101BA000002AF4D1002DF2D10028F6D101204042C4
:101BB000F3E7002D17D1FF2CF0D0002CE7D1002E39
:101BC000E5D1E6E70020002DE7D0E2E7A24205DC00
:101BD000EADBB54202D8E7D30020DEE743425841B2
:101BE00040000138D9E702204042D6E770B54200F4
:101BF00045024E024C00C30F6D0A120E760A240EE7
:101C0000C80FFF2A0BD0FF2C0DD0002A1FD1002CAB
:101C100016D1002E14D10020002D10D009E0002D87
:101C20000CD1FF2C13D1002E08D1002A08D08342FA
:101C300012D00221581E0840013800E0022070BD79
:101C4000002DF4D10028FAD101204042F7E7002C02
:101C5000EDD1002EEBD1ECE7A24205DCF2DBB54280
:101C600002D8EFD30020EAE7434258414000013850
:101C7000E5E7C04680B500AFC046BD4680BD000068
:101C800080B582B000AF0200FB1D1A70FB1D1B78EF
:101C90007F2B09D8FB1D1B781A001F231A40044B09
:101CA000012191400A001A60C046BD4602B080BDC5
:101CB00000E100E080B582B000AF0200FB1D1A70A9
:101CC000FB1D1B787F2B10D8FB1D1B781A001F23D0
:101CD0001340084901229A40130080228B50BFF321
:101CE0004F8FC046BFF36F8FC046C046BD4602B09F
:101CF00080BDC04600E100E080B582B000AF0200C8
:101D0000FB1D1A70FB1D1B787F2B0AD8FB1D1B784F
:101D10001A001F231340054901229A40C0235B008B
:101D2000CA50C046BD4602B080BDC04600E100E0DA
:101D300090B583B000AF02003960FB1D1A70FB1D27
:101D40001B787F2B28D82F4AFB1D1B785BB29B0882
:101D5000C0339B009B58FA1D1278110003220A40E1
:101D6000D200FF2191400A00D2431A4011003B6883
:101D70009B01FF221A40FB1D1B7818000323034020
:101D8000DB009A401F48FB1D1B785BB29B080A438F
:101D9000C0339B001A5031E01B4AFB1D1B78190011
:101DA0000F230B40083B9B0806339B00D3180433DA
:101DB0001B68FA1D1278110003220A40D200FF218D
:101DC00091400A00D2431A4011003B689B01FF2258
:101DD0001A40FB1D1B78180003230340DB009A40C8
:101DE0000948FB1D1B781C000F232340083B9B0860
:101DF0000A4306339B00C31804331A60C046BD462D
:101E000003B090BD00E100E000ED00E080B500AF60
:101E1000114B1A68104B01210A431A60C0460E4B41
:101E20001B6804221340042BF9D10B4BDA680A4BD0
:101E300003218A43DA60084BDA68074B01210A4321
:101E4000DA60C046044BDB6804221340042BF9D14E
:101E5000C046C046BD4680BD0010024080B500AF00
:101E6000104BDA680F4B03218A43DA600D4A0D4BA1
:101E7000D268DA60C0460B4BDB680C221340FAD103
:101E8000084B1A68074B01218A431A60C046054B6C
:101E90001B6804221340042BF9D0C046C046BD463F
:101EA00080BDC0460010024080B500AF2A4B5A6B7F
:101EB000294B04210A435A63C046274B5B6B04221B
:101EC0001340042BF9D1254B00229A62234B0022A8
:101ED0005A62224B224ADA62204B1A6D1F4B1C2198
:101EE0008A431A651D4B1A6D1C4B14210A431A654F
:101EF0001A4B1A6A194B0A218A431A62174B9A69BC
:101F0000164B0C218A439A61144B5A6B134B120CDB
:101F100012045A63114B9A69104B01210A439A61CA
:101F20000E4BDA680D4B02210A43DA600B4B1A6A3A
:101F30000A4B01210A431A62084B1A68074B012118
:101F40000A431A6000211420FFF7F2FE1420FFF765
:101F500097FEC046BD4680BD00100240000801400B
:101F6000FFFF000080B500AF1420FFF7A3FE084B71
:101F70005A6B074B04218A435A63C046044B5B6B80
:101F800004221340042BF9D0C046C046BD4680BD94
:101F90000010024080B582B000AF3A4B1B690222AC
:101FA000134068D0374B5A6B374B5B8A91B2364A35
:101FB0005B00D31802330A1C1A80334B5B8A072B51
:101FC00006D8314B5B8A01339AB22F4B5A824CE0D0
:101FD00001237B6017E02C4B9A8A2B497B685B00BE
:101FE000CB18023319887B68013B27485B00C31874
:101FF00002331B88CB1A9BB2D3189AB2224B9A8217
:102000007B6801337B607B68072BE4D91E4B9B8A7E
:1020100007211800FEF794F803009AB21A4B9A822F
:10202000194B9B8A1800FFF767FC184A184BFFF7FB
:10203000A1F902000B0000201649FEF7ADFE0200D8
:102040000B0010001900FFF787FC021C0E4B9A6171
:10205000FFF788FFFFF702FF0B4B00221A700A4BB5
:1020600000229A82084B00225A82064B1A69054BBD
:1020700002218A431A611420FFF73EFEC046BD4686
:1020800002B080BD00080140D40000208DEDB5A055
:10209000F7C6703E0000F03F80B582B000AF7860B8
:1020A0000F4B1B78002B16D10D4B01221A70FFF736
:1020B000ADFEFFF7F9FE05E0094B1B780133DAB2FC
:1020C000074B1A70064B1B78002BF5D1044B9A690D
:1020D0007B681A6000E0C046BD4602B080BDC046C5
:1020E000D400002080B582B000AF0200FB1D1A7042
:1020F000FB1D1B787F2B09D8FB1D1B781A001F23A3
:102100001A40044B012191400A001A60C046BD46A6
:1021100002B080BD00E100E080B582B000AF0200F7
:10212000FB1D1A70FB1D1B787F2B0AD8FB1D1B782B
:102130001A001F231340054901229A40C0235B0067
:10214000CA50C046BD4602B080BDC04600E100E0B6
:1021500090B583B000AF02003960FB1D1A70FB1D03
:102160001B787F2B28D82F4AFB1D1B785BB29B085E
:10217000C0339B009B58FA1D1278110003220A40BD
:10218000D200FF2191400A00D2431A4011003B685F
:102190009B01FF221A40FB1D1B78180003230340FC
:1021A000DB009A401F48FB1D1B785BB29B080A436B
:1021B000C0339B001A5031E01B4AFB1D1B781900ED
:1021C0000F230B40083B9B0806339B00D3180433B6
:1021D0001B68FA1D1278110003220A40D200FF2169
:1021E00091400A00D2431A4011003B689B01FF2234
:1021F0001A40FB1D1B78180003230340DB009A40A4
:102200000948FB1D1B781C000F232340083B9B083B
:102210000A4306339B00C31804331A60C046BD4608
:1022200003B090BD00E100E000ED00E080B500AF3C
:10223000084B1A6D074B01210A431A65C046054B2E
:102240001B6D02221340022BF9D1C046C046BD4689
:1022500080BDC0460010024080B500AF124B9A6BA3
:10226000114B802149050A439A63104B1A680F4BA2
:10227000802149000A431A600D4BCA225A620C4B56
:1022800053225A620A4BDA68094B80210A43DA600A
:10229000C046074BDB6840221340402BF9D1C046B3
:1022A000C046BD4680BDC0460010024000700040E0
:1022B0000028004080B500AF0F4BDA680E4B80213C
:1022C0008A43DA60C0460C4BDB6840221340402B47
:1022D000F9D0094B00225A62084B1A68074B08498B
:1022E0000A401A60074B9A6B064B07490A409A63EB
:1022F000C046BD4680BDC04600280040007000407A
:10230000FFFEFFFF00100240FFFFFFEF90B583B01C
:1023100000AF164B1800FFF7BFFEFFF79DFFBB1D78
:102320002A22FF321A80114B1B688621C905181C0E
:10233000FEF7C2F8031CBC1D181CFEF7A5F803002D
:102340002380BB1D1A880A4BFE21C9030A431A6168
:10235000BB1D1A88064BFE21C9030A431A61FFF709
:10236000A9FFC046BD4603B090BDC0460000002096
:102370000028004090B583B000AF78602F4B9A6B77
:102380002E4B802149050A439A632D4B1A682C4B2A
:10239000802149000A431A602A4BCA225A62294BFB
:1023A00053225A62274B9A68264B27490A409A6063
:1023B000244BDA68234B24490A40DA60234B1B681C
:1023C0002349181CFEF778F8031C1C1C7868FEF7DC
:1023D0009BFC031C191C201CFEF788F9031C194CDC
:1023E000181CFEF751F803006361164B9A68154BF1
:1023F0008821C9010A439A60164B9A68154B8021BF
:1024000049030A439A60134B1A68124B802149030F
:102410000A431A600B4B00225A62084B9A6B074B17
:102420000D490A409A6300210220FFF791FE022025
:10243000FFF758FEC046BD4603B090BD00100240F5
:102440000070004000280040FFFBFFFF000000205C
:1024500000007A4600040140FFFFFFEF80B500AFA7
:10246000284B9A6B274B802149050A439A63264BD8
:102470001A68254B802149000A431A60234BCA225F
:102480005A62224B53225A62204B9A681F4B2049B2
:102490000A409A601D4BDA681C4B1D490A40DA60FD
:1024A000C0461A4BDB6801221340012BF9D1174BB0
:1024B000DA68164B16490A40DA60144B154ADA619D
:1024C000124B9A68114B882149010A439A60124BBA
:1024D0009A68114B802189020A439A600E4B1A6850
:1024E0000D4B802189020A431A60084B00225A6270
:1024F000044B9A6B034B09490A409A63C046BD4698
:1025000080BDC0460010024000700040002800401E
:10251000FFFEFFFF0080808000040140FFFFFFEF0F
:1025200080B500AFFFF798FE1A4B9A68194B1A490D
:102530000A409A60174BDA68164B17490A40DA606E
:10254000C046144BDB6802221340022BF9D1114B19
:10255000DA68104B10490A40DA600E4B0F4A1A62D3
:102560000C4B9A680B4B882189010A439A600C4BEB
:102570009A680B4B802189020A439A60084B1A68BB
:10258000074B802189020A431A60FFF793FEC04679
:10259000BD4680BD00280040FFFDFFFF8080808099
:1025A0000004014090B58DB000AF78600C243B1959
:1025B000180024231A00002100F037FA464B1B684C
:1025C0001B0907221A4013009B009B185B0019008F
:1025D000414B1B680F221340CB181A0020003B18F8
:1025E0001A603D4B1B681B0B07221A4013009B000F
:1025F0009B185B001900384B1B681B0A0F22134005
:10260000CB181A003B185A60334B1B681B0D032272
:102610001A4013009B009B185B0019002E4B1B688F
:102620001B0C0F221340CB181A003B189A602A4B40
:102630005B681B0903221A4013009B009B185B0078
:102640001900254B5B680F221340CB181A003B186A
:10265000DA60214B5B681B0B01221A4013009B00C0
:102660009B185B0019001C4B5B681B0A0F22134070
:10267000CB18013B1A003B181A61174B5B681B0D06
:102680000F221A4013009B009B185B001900124B8D
:102690005B681B0C0F221340CB1864331A00040034
:1026A0003B185A610C4B5B685B0B072213400721F8
:1026B0001800FDF7CBFD0B001A003B199A613B197E
:1026C000180000F089FA02000B0079680A604B607C
:1026D000C046BD460DB090BD0028004080B500AF9B
:1026E000FFF7A4FD264B9A6B254B802149050A4331
:1026F0009A63244B1A68234B802149000A431A60CD
:102700001F4B1A6D1E4B802109030A431A651C4B8F
:102710001A6D1B4B1C490A401A65194B1A6D184B50
:10272000802189020A431A65154B1A6D144B8021CA
:10273000C9020A431A65134B1A68124B13490A401F
:102740001A600F4B9A6B0E4B11490A409A63012194
:102750000220FFF7FDFC0220FFF7C4FCFFF7D6FDC7
:10276000FA239B001800FFF705FEFFF777FEFFF73F
:10277000D7FE084B180000F0ADF8C046BD4680BD3E
:102780000010024000700040FFFFF7FFFFFEFFFF58
:10279000FFFFFFEF0000002080B500AF00F0D2F88F
:1027A000174B9A6B164B802149050A439A63154BC8
:1027B0001A68144B802149000A431A60124BCA223E
:1027C0005A62114B53225A620F4BDA680E4B0F4973
:1027D0000A40DA600C4B00225A620A4B1A68094B15
:1027E0000B490A401A60064B9A6B054B09490A408F
:1027F0009A63094B802252035A61C046BD4680BD90
:10280000001002400070004000280040FFFBFFFF66
:10281000FFFEFFFFFFFFFFEF0004014080B500AFA8
:10282000FFF774FDFFF71AFE064BDA68054B064901
:102830000A40DA60054B802292025A61C046BD46CA
:1028400080BDC04600280040FFFEFFFF000401409D
:1028500080B500AF094B1800FFF7A4FEFFF760FE3C
:10286000074BDA68064B07490A40DA60064B8022BC
:1028700092025A61C046BD4680BDC046F0000020AD
:1028800000280040FFFDFFFF0004014080B500AFBD
:102890000F4BDA688023DB00134002D0FFF77CFF88
:1028A00010E00B4BDA6880235B00134002D0FFF787
:1028B000B5FF07E0064BDA6880239B00134001D088
:1028C000FFF7C6FF0220FFF727FCC046BD4680BDCC
:1028D0000028004090B583B000AF7860144B154AD3
:1028E0001A60134B144A1A60114B07225A607B6816
:1028F0001B688721C905181CFDF7DEFD031C0F4965
:10290000181CFDF7F3FE031C094C181CFDF7BCFD59
:102910000300A360C046064BDB6803221340FAD1D4
:10292000034B074A1A60C046BD4603B090BDC0467F
:1029300000300040CCCC0000555500000000204184
:10294000AAAA000080B500AF024B034A1A60C04635
:10295000BD4680BD00300040AAAA000080B500AF8F
:10296000FFF7BCFE30BFFDE780B586B000AF7860F2
:10297000144A154BD31A7B617B693B61134B1B686F
:10298000002B02D1114B124A1A60104B1A687B6857
:10299000D3183A699A4207D200F0DCFD03000C22FA
:1029A0001A6001235B4209E0084B1B68FB60074B80
:1029B0001A687B68D218054B1A60FB681800BD4680
:1029C00006B080BD0020002000040000FC000020B4
:1029D000700200200D488546FFF74CF90C480D4960
:1029E0000D4A002302E0D458C4500433C4188C426A
:1029F000F9D30A4A0A4C002301E013600432A242D0
:102A0000FBD300F0ADFDFFF7A9FFFEE7002000209B
:102A100000000020B800002074460008B800002024
:102A20006C020020FEE700207047030082189342EA
:102A300000D1704719700133F9E70000F0B5016863
:102A4000040085B03B290BD93C2202A800F0B8FD58
:102A500063680299039A5B186360002A73DB226043
:102A600061683B290BD93C2202A800F0A9FDA368AC
:102A70000299039A5B18A360002A69DB6260A1686F
:102A800017290BD9182202A800F09AFDE3680299D1
:102A9000039A5B18E360002A5FDBA26021690B29BF
:102AA0000BD90C2202A800F08BFD63690299039AEE
:102AB0005B186361002A55DB226165691C23AA0744
:102AC00010D164212800FDF7ABFC1D23002909D19A
:102AD0003D4B9131E818FF31FDF7A2FC4B425941C3
:102AE0000B001C33E2681D27002A67DD03261C2724
:102AF000364A019222691800E168012A02D0019D3C
:102B00009000405981425CDD091A0132E160226186
:102B10000C2AEFD1002365692361681C3B006061CA
:102B20003042E7D16421FDF77BFC1D230029E1D170
:102B3000274B9131E818FF31FDF772FC4B425941A8
:102B40000B001C33D6E73C32013B2260636087E711
:102B50003C32013B6260A36091E71832013BA26006
:102B6000E3609BE70C32013B22616361A5E72269C8
:102B7000013A2261013218D10B23032265692361D6
:102B8000681E6061113310420FD16421FDF748FCCB
:102B90003B00002909D10F4B9131E818FF31FDF7B7
:102BA0003FFC4B4259410B001C3321691A0001299B
:102BB00002D0064A89008A58B218E260E668002E00
:102BC000D5DD05B0F0BDC0466C0700003C440008F0
:102BD0006D0700006B070000F0B58DB0040000F039
:102BE0001DFF06902000FFF729FF3C226368A168C3
:102BF0005343226867699B18E12212014A43216905
:102C00009B180093BC4ADB1701938800E368825845
:102C1000013B9B180393012912DDBB0710D16421EE
:102C20003800FDF7FDFB002907D1B44B9131FF318E
:102C3000F818FDF7F5FB002902D1039B013303933C
:102C4000039BAF4AE361AF4BFB18934200D988E185
:102C5000462F00DC9AE004224623032694461900FE
:102C60003140334200D08EE00220A74DA74A5D4399
:102C7000C5416D30FF3095420BD8A04A9818A24A42
:102C800042436046C241A248904249416E31FF3101
:102C90000800039A0133121803929F42DFD1039B6D
:102CA0009C4A0398D9170023FDF7C0FB009A019BAB
:102CB00012184B410092019300F014FA00F022FA2E
:102CC000954B1D68002D55D08C4B6069C018236A48
:102CD00007930993002B01DD01230993069B5B6891
:102CE000834200D091E0069B1B6D1800D917089312
:102CF000069B1A6A5B6A121A8B4104920593069B23
:102D00009A6CDB6C0A920B930A9D0B9E069B9B6A46
:102D10001A009C46DB17AD1A9E412A00019D330024
:102D2000AE420FDC02D1009DAA420BD80A9D0B9E39
:102D30002D1A8E412800019DAE426BDC02D1009D10
:102D4000A84267D806990968002965D001990598B5
:102D500088420BDC03D100990498884206D8019977
:102D60008B4262DC02D100998A425ED80025079B23
:102D7000AB425EDA069B9B6A1E00DF17009A019B3E
:102D8000B6185F41A8E06E20FF3082E74525462F48
:102D900000D184E7C826760003232B40AF4215DB21
:102DA000002B2DD164213800FDF73AFB002929D1F1
:102DB000524B9131F818FF31FDF732FB4B4259412C
:102DC0006E31FF31039B5B1A039368E7002B15D12B
:102DD00064212800FDF724FBB7235B00002908D1FC
:102DE000464B3100E818FDF71BFB4B424B416E335D
:102DF000FF33039A013DD31A0393CDE76E23F7E720
:102E00006E21DEE7B7214900DCE700F0B1F80028C9
:102E100000D068E7099D53E00199059888429EDC3F
:102E200003D100990498884299D8079B0125002B6B
:102E300049DB099E6E40012E42D16246089B9B1AD7
:102E4000002D02D06346089A9B1A18002268D917F1
:102E5000D2182260009A019B12184B4100920193F4
:102E6000E36820000493FFF7E9FDE268049B0499FE
:102E7000D31A8A4224D0012B1CDC5A1C00DA3300FE
:102E8000039AE669D218039203229E194AD5781E46
:102E9000104212D16421FDF7C3FA002940D11F4B23
:102EA0009131F818FF31FDF7BBFA4B4259416D31B2
:102EB000FF3104E001235B42E2E7B6214900E16112
:102EC000012D00D056E7069B01251B6D1E00DF1764
:102ED000009A019BB6185F4100F00CF90398072196
:102EE00025620430FDF79CFA002938DBA16130002F
:102EF00039000DB0F0BDC0466C4400086C070000FE
:102F0000204E000010270000295C8FC2285C8F0231
:102F10000AD7A30080510100540200206B07000073
:102F20006E21C5E7174213D164213800FDF778FA06
:102F300000290FD10D4B9131F818FF31FDF770FAD0
:102F40004B4259416E31FF318E4206DAE661B7E7F6
:102F50006E21F8E7B7214900F6E7761AF6E7073160
:102F6000C4E701267642F717C1E7C0466C070000A8
:102F7000F0B58DB0040000F051FD534B050000206A
:102F80009C426DDD6E266421504BFF36E3185E4394
:102F90004F4B6C60E3189B10F6184E4B4942E018FB
:102FA000FDF758F9C8214C4B36184900E018FDF7D9
:102FB00051F96421331820000193FDF731FA029191
:102FC000C82120004900FDF72BFA0B005A425A4154
:102FD0002B0058330A9303232E001C4003910B92BD
:102FE000083609943378F7684A2B3BD1019BD819EE
:102FF000099B002B02D1029B002B03D10023039AD3
:103000009A4203D101233B2F00DC0023C018013872
:103010000023324AC117FDF709FA33690493DB171D
:103020000593049B059CC0186141336A0693DB1726
:103030000793069B079CC01861410A9BB061F16130
:103040002836B342CED1E96C6A6A0123914205DC8D
:1030500003D1A96C2A6A914200D8002301202B6079
:103060000DB0F0BD442B02D1019BD819D0E7099ACD
:103070000B9B002A03D1029A002A00D001233022A0
:10308000534300221648043B7168019C1B1801320F
:10309000900018580890914210DC0721201DFDF780
:1030A000BFF9791A00D507310723B268013A5343B3
:1030B0005B18089A934204DAE018A9E708982418E4
:1030C000E5E7073BF5E7C046B10700004EF8FFFF14
:1030D0004FF8FFFF93F8FFFFBFF9FFFF805101009A
:1030E000EC45000810B5024800F05EFA10BDC0467D
:1030F0006202002010B5024800F058FA10BDC04628
:103100006202002010B5024B186800F003F810BDF1
:103110005C000020F0B58FB0060000F07FFCCC49C9
:103120000700300000F0EAFACA4C051E22D1CA4B53
:10313000CA4A1860CA4BF8601860CA4B3861786197
:10314000B861B86238004A211A605A600022002330
:1031500030303A627B6239720170BA64FB64206875
:103160007D63BD63FD633D643D6500F0CDFA256080
:103170000FB0F0BD2168002900D089E0206800F080
:10318000C3FA2800FCF7CAFF411C300000F0E8FA3F
:103190002060002800D081E00023AF4AB2491360CC
:1031A000AF4A3C001360AF4A0020116051604A22D0
:1031B000002130343A7238627962FB603B617B6196
:1031C000BB61BB622270B864F9647B63BB63FB6361
:1031D0003B643B652B783A3B5A425341ED182B78C0
:1031E000A24A3C2B5ED16C1C2000A1490CAB00F024
:1031F000DBFB0028BCDD0C9BDA1E072AB8D8E35C99
:1032000002353E2BB4D10C9BEC18EB5C2D2B56D128
:103210002E3B01340493162504ABED1800230AAEAF
:103220002B8033800CAB20009249039302960193CC
:10323000009509AA00F0B8FB002899DD3C232A88F4
:10324000534332889B1804AA918AE12212014A430F
:103250009B18049A5A430C9B0492E618E35C864A36
:103260003C2B00D0CDE0741C200081490CAB00F059
:103270009BFB00282ADC73783E2B27D1794B7B4AB5
:103280001A605A60049B049ABB62734B1A606FE722
:10329000FCF73AFF002800D070E769E7290000F04A
:1032A00087F979E7280075490CAB00F07DFB002811
:1032B00000DC5DE70C9B033B072BA4D958E70122F8
:1032C0002B3B04925A425341E418A4E70C9BDA1EAC
:1032D000072A00D94CE7E35C02363E2B00D047E7D3
:1032E0000C9BF418F35C2D2B00D098E02E3B01349E
:1032F0000593002304AA0AAE93822B8033800C939B
:103300000CAB20005B49039302960193009509AA38
:1033100000F04AFB002800DD88E0594A049B9446EF
:10332000634407930C9B3D00E41800230835059384
:1033300023782C3B5A425341E41826784D2E00D076
:10334000A4E00CAB03931E2304AA9B181A22029339
:103350000CAB04A801930BAB009312184949200051
:103360000CAB00F021FB032800D001E704AB598B24
:103370004B1E0B2B00D9FBE604AB9A8B531E042B80
:1033800000D9F5E604ABDB8B062B00D9F0E62E70F6
:103390006960AA60EB600C9EA6190223002409AAAA
:1033A000138004A914335B180AA81C8004800C94B1
:1033B00031782F2900D097E03349029006910CA96B
:1033C00003910191009330000B00069900F0ECFA94
:1033D000A04200DD88E038004A210022002330307E
:1033E0003A627B623972FC603C617C61BC61BC62A8
:1033F0000170BA64FB647C63BC63FC633C643C6541
:10340000B6E630001D490CAB00F0CEFA002800DC17
:1034100034E70C9B033B072B00D861E7A8E60122A9
:103420002B3B05925A425341E41862E73C232A8819
:10343000534332889B1804AA918AE12212014A431D
:103440009B18059A5A4307926CE701236FE7C04621
:103450009C44000850020020580200209F440008AD
:1034600054020020080000206446000844020020A6
:10347000A3440008D844000838020020B6440008DD
:10348000F0F1FFFFC4440008D7440008442306932A
:103490004A2E01D1013406960A2220000DA900F01F
:1034A00077FA1E2304AA0D9E9B181880A64216D1F7
:1034B000059B002B08D14D333B724A3BFB60013B1F
:1034C0003B61059B7B6168E73B004D2230331A70FE
:1034D0000B237B630A3BBB630023FB635DE7069B17
:1034E00080B22B70E86058E7162304AA9B181A884C
:1034F0003C2353430AAA12889B1809AA1188E12287
:1035000012014A439B182B610C9C059B34192835EA
:10351000012B9AD1049B0A4ABB62079B78683B65E2
:10352000084B1A60084A5A60FFF722FDBA6A074B37
:1035300007491A603B6D9B1A5A1E93410B6017E6B0
:103540004402002008000020380200205802002019
:1035500054020020014B18687047C0465C000020F0
:1035600070B500260C4C0D4D641BA410A64209D169
:10357000002600F0F1FE0A4C0A4D641BA410A6427E
:1035800005D170BDB300EB5898470136EEE7B300A4
:10359000EB5898470136F2E76C4600086C46000885
:1035A000704600086C4600087047704770477047C7
:1035B00003000A7801311A700133002AF9D17047EB
:1035C00070B50E000400110030001500FCF728FF54
:1035D000002E07DB002901DA0130491B2060616001
:1035E000200070BD0029F9DD01384919F6E7000017
:1035F00070B50500002910D00C1F2368002B00DADD
:10360000E418280000F02EF91D4A1368002B05D19C
:1036100063601460280000F02DF970BDA34208D942
:10362000206821188B42F3D119685B680918216062
:10363000EEE71A005B68002B01D0A342F9D91168AC
:103640005018A0420BD1206809185018116083420D
:10365000E0D118685B68411811605360DAE7A04256
:1036600002D90C232B60D5E7206821188B4203D1A7
:1036700019685B680918216063605460CAE7C04636
:1036800064020020F0B50D0085B00600039200F042
:10369000DBF9194F2B003C68002C06D1300000F0FC
:1036A000DBF9002005B0F0BD01331A78002A1FD0E5
:1036B0003D2AF9D1F2E7043420680028EED0290031
:1036C000019A00F099F90028F5D12368019A9A1817
:1036D0000292019A9B5C3D2BEDD13B68039AE31A61
:1036E0009B103000136000F0B7F902980130D9E761
:1036F0005B1B0193E0E7C0460400002007B501AA68
:10370000FFF7C0FF0EBD000010B5034B01001868A5
:10371000FFF76EFF10BDC0465C00002070B50F4E75
:103720000D0031680400002902D100F07BF93060FF
:103730002900200000F076F9431C0AD00323C51CA1
:103740009D43A84207D0291A200000F06BF90130F0
:1037500001D101256D42280070BDC04668020020DD
:10376000F7B50322CB1C9343083306001F000C2B34
:1037700038D20C27B94237D8300000F073F8384BF4
:1037800000931B681C00002C33D139003000FFF778
:10379000C5FF0400431C5ED1009B1C682500002D62
:1037A0004ED1002C51D023682900E318300001933A
:1037B00000F038F9019B834247D123683000FF1A9B
:1037C0003900FFF7ABFF01303FD02368DB192360DE
:1037D000009B1B68002B40D05A68A24233D10022C4
:1037E0005A6014E0002BC5DA0C2300253360280052
:1037F000FEBD2168C91B20D40B2918D9E219276006
:10380000A34212D1009B1A606368116053603000BC
:10381000250000F02FF807220B35231D9543EA1AE7
:103820009D42E4D05B1BA350E1E75A60ECE762687D
:10383000A342D5D1009B1A60E9E723006468A2E7A0
:103840002C006D68ABE71300C4E70C233000336035
:1038500000F010F8CBE72760D9E75B60FFDEC046D9
:103860006402002010B50248FFF79FFE10BDC0465D
:103870006102002010B50248FFF799FE10BDC04656
:1038800061020020F0B587B002923E4A1E0001910D
:103890000B009446082105901A0060461478013305
:1038A000005D1D0007000F400842F5D12D2C3DD1D1
:1038B00001271C78951C002E5FD0102E09D1302CCA
:1038C00007D120222B789343582B51D110266C78A6
:1038D0000235012031004042FCF732FC0390012008
:1038E00031004042FCF7B2FC002301220491012187
:1038F0001800944649422200303A092A03D9113A65
:10390000192A18D80A32964219DD5C1C0BD0039C88
:103910000B00844207D303D1049C0B00944202DBCA
:103920006346704310182C780135E4E72B2CC2D184
:103930001C78951CBFE72200613A192AE2D95A1C6B
:1039400008D12222059918000A60029A002A09D19A
:1039500007B0F0BD002F00D04042029A002AF7D0F5
:10396000002B01D06B1E0193029B019A1A60EFE7B6
:103970003024002EADD10836ABE7302CA1D00A267A
:10398000A7E7C046EB44000810B5FFF77BFF10BD6A
:1039900010B5044C13000A0001002068FFF772FF05
:1039A00010BDC0465C0000200EB430B581239CB031
:1039B0006A461FAC9B0020CC938202900690FCF7D5
:1039C000ADFB0B4B6A460B9300230390079009480D
:1039D0000F931493013BD38202A923002A000068AD
:1039E000019400F09DF81CB030BC08BC03B018472F
:1039F000272A00085C00002030B50500101E0BD0FF
:103A00000024013A2B5D085D834204D1A24202D01A
:103A10000134002BF6D1181A30BD00000048704761
:103A200060000020002370B5064D040008002B60E4
:103A3000FEF79AFF431C03D12B68002B00D02360B4
:103A400070BDC0465C02002010B50248FFF7ADFD16
:103A500010BDC0466002002010B50248FFF7A7FD68
:103A600010BDC0466002002070B514004B1C03D18D
:103A700001256D42280070BD938920229343626B1B
:103A8000A381CEB26368CDB2002A10D0A26B9A4255
:103A900007DD2368013B23601E70636801336360A8
:103AA000E8E7210000F044FB0028F2D0E0E72169BC
:103AB0002268002907D0914205D2511E0878A842F9
:103AC00001D12160EAE723642300443363630323C5
:103AD000A36323004633E2631E7023600123DEE705
:103AE00010B50C00496B00290ED0230044339942D5
:103AF00001D0FFF77DFD0020236C6063636083428B
:103B000002D0E36B236010BD2369012023600023F2
:103B1000A289636020331343A3814042F3E700008E
:103B2000F0B5AE4C0600A5440C000021BE20469125
:103B3000479103A94891AA49400043AD2950C025A7
:103B4000A8496D0043A8415102931578002D00D17A
:103B500041E1A54B0820595D00930823571C0B40F9
:103B600001421ED06368002B11DD236800991A788A
:103B70008A5C08210A4201D13A00E6E7479A0133FC
:103B80000132479262682360013A6260EAE7C0222C
:103B900043AB5200210030009B5898470028E4D0E6
:103BA000EAE7252D62D14593439353782A2B02D11E
:103BB0001A3B4393971C3D000A2229786B1C019302
:103BC0000B00303B092B1ED9884F0322380000F030
:103BD000EDFA002806D00123C01B8340439A019DC3
:103BE000134343936F1C2D78782D07D8572D11D888
:103BF000252D3BD035D8002D00D1E9E00323499392
:103C0000073344936DE0459B019D5343303B5B1864
:103C10004593D2E7280058382028EFD8FCF786FAD9
:103C20004D00EEFFEEFF7F00EEFFEEFFEEFFEEFF3A
:103C3000EEFFEEFFEEFF8A007D002400240024004A
:103C4000EEFF5900EEFFEEFFEEFFEEFF92005D008B
:103C50004900EEFFEEFF9000EEFF7D00EEFFEEFF6D
:103C60004D00453D022DC9D8052339E06368002B7E
:103C70000DDD23681A78AA4200D0ACE001336268F7
:103C80002360479B013A01336260479374E7C02287
:103C900043AB5200210030009B5898470028E8D0E1
:103CA0004698002800D08FE00138A5239B009D4452
:103CB000F0BD2023439A134343938023439A9B00F0
:103CC00013434393102344936E23AB429B415B42C7
:103CD00001E000234493033302E008234493043BB0
:103CE00049936368002B3CDD439B5B0606D4236845
:103CF00000991A788A5C08210A423CD1499B022B20
:103D00004EDC2200300002AB43A900F073F801281A
:103D100061D0022800D02FE7C2E70A23D3E7390099
:103D200003A800F0C9F94023439A070013434393C3
:103D30000123D5E74023439A134343930023CFE75E
:103D40000223CDE7439AD30600D515E7029B479996
:103D5000181D02901B68D50701D519800CE7196062
:103D60000AE7C02243AB5200210030009B5898471D
:103D70000028B9D094E7479A013247926268013A25
:103D80006260002A02DD01332360B0E7C02243AB4A
:103D90005200210030009B5898470028A7D07FE7A9
:103DA000042B06DC2200300002AB43A900F080F8AF
:103DB000ADE70F4B002B00D1DEE62200300002AB56
:103DC00043A900E000BFA2E7A3895B0600D46CE72B
:103DD0000120404269E7469867E7C0466CFDFFFF57
:103DE000693A0008E13A0008EB4400084C46000834
:103DF00000000000F7B515008A680C000190002A49
:103E000005D189690132002900D0023AA2602268F6
:103E1000D20603D41A68111D196017680026A0691C
:103E2000002813D0012808D12B6862691B78D35C65
:103E3000002B0BD1002E38D026E0022824D12B688D
:103E40001A4A1B78D35C082213421DD11022236822
:103E50000136134203D12B681B783B7001372A6867
:103E60006B6801322A60A268013B013A6B60A26074
:103E7000002A09D0002BD2DCC0235B002900E358C4
:103E8000019898470028CAD02268102311001940D1
:103E90001A4206D1E3680133E360A369002B00D026
:103EA0003970002023699B192361FEBDEB44000893
:103EB000F0B58BB001937A4B1600049007AAA1CB02
:103EC000A1C2784A8B690C000592032B01D0764B76
:103ED0000593AE220020A3685200591E0390914220
:103EE00005D95E3BFF3B03935E23FF33A3602300B2
:103EF0001C330093D023002722681B011343236047
:103F0000009B0293336807A81978BB000222185857
:103F100000F04CF900282AD0012F61D16368002BF2
:103F200006D1083322686360F933FF3313432360FB
:103F300023685E4A13402360A3685A1EA260002BC8
:103F400015D033685A1C32601B78029A137073685C
:103F5000551C013B73600295002B08DCC0235B00FD
:103F60003100E35804989847002800D080E00137DA
:103F7000032FC7D16368002B01D10A33636010217E
:103F8000002763686069C91A494BC91800F094F8A2
:103F9000029DA36820680293002B40D031686369BA
:103FA0000A789B5C002B3AD0302A29D180231B0150
:103FB000184225D0039B0137002B05D01A00029B25
:103FC000013A01330392A3607368013B7360002BD5
:103FD0001DDD336801333360A368013BA360D8E77C
:103FE000022FA9D1C02180232268C90011409B0063
:103FF0009942BFD1F13BFF3B6360F03313439AE733
:104000002C4B034023600B782B700135DCE7C02379
:104010005B003100E358049898470028DCD02368FF
:10402000DB050ED5009B9D4207D9BE23013D5B00F9
:1040300032002978E35804989847009B01209D425C
:1040400029D0216810230A001A4019421CD12A7075
:10405000636800990498059EB047019B22681B681D
:10406000910607D501991A1D0A601B68186008E0BF
:104070000027D4E7191DD6070FD5019A11601B68D8
:104080001880E3680133E3600020009BED1A236988
:10409000ED195B1923610BB0F0BD019A1160E4E7E3
:1040A000704300084143000889390008FFFAFFFF08
:1040B00050460008FFF6FFFFF0B50B7804005E2BBA
:1040C00019D000224D1C2100601CFF300A70013104
:1040D0008142FBD1681E002B0CD001212D264A40C5
:1040E0002800E2540178451C2D290CD05D291DD0F3
:1040F000002904D1F0BD01224B788D1CE3E70B00B1
:10410000EEE73300ECE741785D29FAD08B42F8DC2A
:104110001D00023001356255A942FBDC00255F1C01
:104120008B4201DACD1A013D7B19DBE72800E1E77C
:104130000B00F7B54D6B44330C009D421CD180261B
:10414000F6003100FFF70CFB002802D101204042AD
:10415000FEBD23006063A66346331A78104BC25439
:10416000230045331A780F4BC2542A780E4BC254A1
:10417000C01820600020EBE78E6B290073001A0046
:10418000019300F027F8051EE0D0871901003200E6
:10419000380000F016F8019B27606563A363E9E728
:1041A000FF030000FE030000FD030000C9B28218F7
:1041B000904201D10020704703788B42FBD0013040
:1041C000F6E7002310B59A4200D110BDCC5CC45470
:1041D0000133F8E7F7B507000E001400002905D1F8
:1041E0001100FFF7BDFA05002800FEBD002A03D12B
:1041F000FFF7FEF92500F7E700F0A6F801908442EA
:1042000003D835004308A342EED321003800FFF75E
:10421000A7FA051EE8D0019B22009C4200D91A0093
:1042200031002800FFF7CDFF31003800FFF7E0F93B
:10423000DAE70000F0B587B01E0005900191029208
:10424000012B48D00B00242E45D83B4A0821944628
:104250001A00604614780133005D1D0007000F400E
:104260000842F5D12D2C3DD101271C78951C002E3C
:104270005ED0102E09D1302C07D120222B78934309
:10428000582B50D110266C7802352C4B3100FB187E
:1042900018000393FBF7DAFF002204910121844602
:1042A000100049422300303B092B03D9113B192B45
:1042B0001DD80A339E421EDD541C09D00A008445D5
:1042C00006D302D1049C9C4202DB012270431818E1
:1042D0002C780135E6E7FFF73DF91623036000204F
:1042E00007B0F0BD2B2CC2D11C78951CBFE7230072
:1042F000613B192BDDD9531C09D12223059A039860
:104300001360029B002BEBD06B1E019307E0002F84
:1043100000D04042029B002BE2D0002AF4D1029B45
:10432000019A1A60DCE73024002EAED10836ACE7E3
:10433000302CA2D00A26A8E7EB440008FFFFFF7F3D
:1043400010B5FFF777FF10BD0B1F1B68181F002B60
:1043500001DA0B58C0187047F8B5C046F8BC08BC65
:104360009E467047F8B5C046F8BC08BC9E467047EC
:104370006246000865460008684600089006000886
:104380001E060008720500082A05000872050008CC
:104390005A060008720500082A0500081E060008D3
:1043A0001E0600085A0600082A0500083005000805
:1043B0003005000830050008680600081E060008E1
:1043C0001E06000872050008260500087205000890
:1043D0005A06000872050008260500081E06000897
:1043E0001E0600085A0600082605000830050008C9
:1043F000300500083005000864060008740E000847
:10440000620E0008400E00086A0E0008400E000808
:104410003A110008400E00086A0E0008620E0008FB
:10442000620E00083A1100086A0E00082C0E0008FF
:104430002C0E00082C0E0008B21100081F0000000E
:104440001C0000001F0000001E0000001F000000F4
:104450001E0000001F0000001F0000001E000000E2
:104460001F0000001E0000001F00000000000000F0
:104470001F0000003B0000005A0000007800000010
:1044800097000000B5000000D4000000F300000019
:1044900011010000300100004E010000545A004795
:1044A0004D54002531315B2D2B302D39412D5A6172
:1044B0002D7A5D256E002531315B412D5A612D7AB3
:1044C0005D256E004D256875256E2E256875256E57
:1044D0002E256875256E002F256875256E3A25688E
:1044E00075256E3A256875256E0000202020202055
:1044F0002020202028282828282020202020202094
:104500002020202020202020202020881010101083
:1045100010101010101010101010100404040404D7
:104520000404040404101010101010104141414103
:1045300041410101010101010101010101010101EB
:1045400001010101010110101010101042424242FD
:1045500042420202020202020202020202020202BB
:1045600002020202020210101010200000000000DF
:10457000000000000000000000000000000000003B
:10458000000000000000000000000000000000002B
:10459000000000000000000000000000000000001B
:1045A000000000000000000000000000000000000B
:1045B00000000000000000000000000000000000FB
:1045C00000000000000000000000000000000000EB
:1045D00000000000000000000000000000000000DB
:1045E0000000000000000000000000001F000000AC
:1045F0001C0000001F0000001E0000001F00000043
:104600001E0000001F0000001F0000001E00000030
:104610001F0000001E0000001F0000001F0000001F
:104620001D0000001F0000001E0000001F00000011
:104630001E0000001F0000001F0000001E00000000
:104640001F0000001E0000001F000000686C4C00EE
:10465000412D46612D6638393031323334353637A5
:0C4660005D002B2D003030007858000069
:04466C00E900000859
:04467000C10000087D
:1046740000701447F80000209F4400089F4400087D
:10468400000000000001002068010020D00100208B
:104694000000000000000000000000000000000016
:1046A4000000000000000000000000000000000006
:1046B40000000000000000000000000000000000F6
:1046C40000000000000000000000000010000020B6
:1046D40001000000000000004A000000000000008B
:1046E40000000000000000000000000000000000C6
:1046F40000000000000000000000000000000000B6
:104704004A0000000000000000000000000000005B
:104714000000000000000000000000000000000095
:0847240000000000000000008D
:04000005080029D5F1
:00000001FF
