:020000040800F2
:1000000000200020092B0008592B0008592B00085C
:1000100000000000000000000000000000000000E0
:10002000000000000000000000000000592B000844
:100030000000000000000000592B0008592B0008A8
:10004000592B0008592B0008152A00080000000051
:10005000592B0008592B0008592B0008811C000857
:10006000592B0008592B0008592B0008592B000860
:10007000592B0008592B0008592B0008592B000850
:10008000592B0008592B0008592B000800000000CC
:1000900029220008592B0008592B0008592B000869
:1000A000592B0008D91C0008592B0008592B0008AF
:1000B000592B000800000000592B0008592B00089C
:1000C00010B5064C2378002B07D1054B002B02D02E
:1000D000044800E000BF0123237010BD3C00002055
:1000E00000000000B42B0008044B10B5002B03D017
:1000F0000349044800E000BF10BDC04600000000F6
:1001000040000020B42B0008002243088B4274D327
:1001100003098B425FD3030A8B4244D3030B8B4208
:1001200028D3030C8B420DD3FF22090212BA030C11
:100130008B4202D31212090265D0030B8B4219D3F2
:1001400000E0090AC30B8B4201D3CB03C01A524112
:10015000830B8B4201D38B03C01A5241430B8B425A
:1001600001D34B03C01A5241030B8B4201D30B0343
:10017000C01A5241C30A8B4201D3CB02C01A52416A
:10018000830A8B4201D38B02C01A5241430A8B422D
:1001900001D34B02C01A5241030A8B4201D30B0216
:1001A000C01A5241CDD2C3098B4201D3CB01C01A30
:1001B000524183098B4201D38B01C01A524143093A
:1001C0008B4201D34B01C01A524103098B4201D328
:1001D0000B01C01A5241C3088B4201D3CB00C01A95
:1001E000524183088B4201D38B00C01A524143080D
:1001F0008B4201D34B00C01A5241411A00D2014632
:10020000524110467047FFE701B5002000F006F8A4
:1002100002BDC0460029F7D076E770477047C04658
:100220009E2110B5C905041C01F018FB002803D15C
:10023000201C00F015FC10BD9E21201CC90500F0FB
:100240006FFA00F00DFC80231B069C466044F2E729
:10025000F0B54F464646D6464502C0B547000C1C91
:100260006D0A3F0EC60F002F00D16FE0FF2F00D1A7
:1002700074E00023802299469A46ED00D20415438B
:100280007F3F63025B0A984663001B0EE40F002B5E
:100290004DD0FF2B45D042468021D200C9041143E6
:1002A000884600227F3B3100FF1A4B466140C9B2AD
:1002B0000F2B00D9B8E070489B00C3589F4600231D
:1002C00098462600454692465346022B00D18DE0C3
:1002D000032B00D1A1E0012B18D03B007F33002B72
:1002E0006DDD6A0704D00F222A40042A00D00435AD
:1002F0002A0103D5614B1D403B008033FE2B00DDFE
:1003000074E0AA01520AD8B202E00E0000200022D6
:10031000C005F60710433043E0BCBA46B146A846D4
:10032000F0BD4346002B3FD10222FF3F03E043468E
:10033000002B2DD1012231004B466140C9B213433D
:100340000F2B38D84E489B00C3589F46002D13D121
:1003500004239946033B00279A4692E7002D05D1D6
:1003600008239946063BFF279A468AE70C239946BD
:10037000093BFF279A4684E7280001F079FA76279F
:10038000431F9D4000237F4299469A463F1A78E7D3
:10039000404601F06DFA4246431F9A4076235B4285
:1003A00090461B1A00227EE703234A461A439146D1
:1003B000FC33032277E70E00FF200022A8E701228A
:1003C000D31A1B2BA2DC9E372A00BD40DA406B1EDD
:1003D0009D4115436A0704D00F222A40042A00D009
:1003E00004356A0144D50120002291E7FF20002254
:1003F0008EE780220026FF20D20389E7002398465B
:100400008022D203154208D04346134205D11A4335
:1004100052022600FF20520A7AE78022D2032A43A2
:100420005202FF20520A73E742466B015501AB426C
:100430001AD21B200022013F01261C0052005B0043
:10044000002C01DB9D4201D85B1B324301380028A0
:10045000F3D1581E834113431D003B007F330E0030
:10046000002B00DD3DE7AAE71A2001225B1BE3E732
:10047000AA010020520A4BE7CC2B0008FFFFFFF730
:100480000C2C000843025B0AF0B54F4646469946DD
:10049000D646C30F45009846C0B54B460F1C2D0EDF
:1004A00000D1CBE0FF2D00D1CFE08022DB00D204D1
:1004B0001A430023914600269A467F3D7C027B002A
:1004C000640A1B0EFF0F002B00D1A9E0FF2B11D0F7
:1004D0008022E400D204144342467F3B5B197A40F9
:1004E0000020D2B25D1C0A2E13DD3A000B2E47D03D
:1004F00047463FE02B00FF33002C1ED1022216435B
:10050000424601357A40D2B2FF350A2E00DDE4E0E2
:100510000220022E1CDC013E012E42D802283DD0D2
:10052000012866D100200021C0050843D2071043EE
:10053000E0BCBA46B146A846F0BD03221643424687
:1005400001357A40D2B2FF350A2E00DDE4E0032007
:100550000121B140A626F60031420AD19026B6000C
:10056000314216D1B93EFF3E0E421AD0A146824614
:1005700000E0170053463A00022B0FD04C4650467D
:100580000328CDD18021C90321434902FF20490A14
:10059000CAE780210022FF20C903C5E7FF20002110
:1005A000C2E7200C49462404240C27000E0C090441
:1005B000090C74434F4346434843390C001909184A
:1005C0008C4203D980204002844666443F040804DC
:1005D0003F0CC0198401671EBC41090C800E8919AB
:1005E000044389010C43090171D5012361081C40B2
:1005F0000C432B007F33002B51DD610704D00F210A
:100600002140042900D00434210103D5434B1C4070
:100610002B008033FE2BC1DCA101490AD8B283E74D
:10062000002C2CD1012342461E432B007A4001208E
:10063000D2B25D1C0A2E00DD57E76AE7002B10D10D
:100640000123042600259A4638E7002B04D1022313
:100650000826FF259A4631E703230C26FF259A46F4
:100660002CE7484601F004F94A46431F76259A4094
:1006700000236D42914600269A462D1A1EE720005F
:1006800001F0F6F84246431F9C402B1A763B7A4015
:100690000020D2B25D1C0A2E00DD26E739E70121D9
:1006A000CB1A1B2B00DD3DE79E352100AC40D94025
:1006B000631E9C4121434B0704D00F230B40042BA6
:1006C00000D004314B0104D5012000212CE71D008E
:1006D0008FE789010020490A26E702230F2E0CD15B
:1006E00080214B46C9030B420DD00C420BD1214354
:1006F00049023A00FF20490A16E70B2E00D0F7E620
:10070000A1469A4636E780214B46C9031943490260
:100710004246FF20490A07E70323DFE7FFFFFFF711
:10072000F0B5C64643025B0A4500DA00C40F480232
:100730004F009446420A1E00904600B52D0E3F0E13
:10074000C90F8009FF2F59D0012251408C4239D066
:10075000EA1B002A58DD002F68D0FF2D00D1D1E020
:100760008023DB0418431B2A00DCE3E001236246FC
:10077000D31A5A0100D4ACE09B019E09300001F06D
:1007800077F8330005388340854200DCC6E0B24A82
:100790002D1A13405A0704D00F221A40042A00D001
:1007A00004335A0100D497E06A1CFE2D00D184E086
:1007B0009B015E0AD2B2D0053043E407204380BCDF
:1007C000B846F0BDEA1B002A41DD002F6BD0FF2D9B
:1007D00000D197E08023DB0418431B2A00DCCCE027
:1007E000012363445A0174D50135FF2D65D00122E0
:1007F0009A491A405B080B401343CBE700281FD0EF
:100800008C4222D02A00FF3A002A35D07A1B002DD4
:1008100000D099E06346002B00D1DDE0531E012A91
:1008200000D105E1FF2A6BD01A0094E0002873D0B4
:10083000511E012A00D1DFE0FF2A63D00A0092E7AF
:1008400001225140A14200D082E72A00FF3A002A4B
:1008500036D07A1B002D00D1AAE0FF2F00D1DAE0BC
:1008600080236146DB0419438C461B2A00DCD4E05C
:1008700001233D001B18B5E7FE276A1C174271D102
:10088000002D00D09EE06346002B00D1D5E0002271
:10089000002800D18FE71B1A5E0100D4D6E0634622
:1008A0000C00C31A76E7002836D0511E012A00D169
:1008B0009AE0FF2A26D00A008FE7FF2200267AE777
:1008C000FE276A1C174262D0FF2AF6D0150060444A
:1008D00043085A0700D05FE7DB08FF2D12D05B0208
:1008E0005E0AEAB267E76246002A00D193E0002878
:1008F00008D08022D203134204D04046104201D1D6
:100900000C004346002BD8D08026F6031E43760207
:10091000FF22760A4FE743461500DEE72022401B00
:100920000130121A19009340C1405A1E934100250C
:100930000B432FE720239B1A010098400300D1406E
:100940005A1E93410B4312E7FF2FD9D080236446F0
:10095000DB041C43A4461B2A52DD01230C003D008E
:10096000C31A06E763461E1A730139D4002E00D05D
:1009700004E70024002200261DE720239B1A010023
:1009800098400300D1405A1E93410B4329E7002DA4
:10099000A9D16346002B56D00022002800D10AE7D7
:1009A000030063445A0194D52B4A0135134090E764
:1009B0006346002BAFD0531E012A15D0FF2A2AD040
:1009C0001A0052E76246002A91D1002898D1802669
:1009D0000024FF22F603EEE60C00434615007CE7F8
:1009E00063460C00C61AC9E60300634401255A0198
:1009F00000D46EE70225FAE6634601251B1AB8E625
:100A000064462023D4409B1A62469A4013005A1E23
:100A100093412343A2E7434674E761462023D14034
:100A20009B1A62469A4013005A1E93410B4320E7DB
:100A300063460C000125C31A9BE6002899D00C00E0
:100A400046460022B7E646460022B4E6002B00D018
:100A50003FE700240026AEE6FFFFFFFBFFFFFF7D20
:100A600041024200C30F490A0020120E7E2A03DD14
:100A70009D2A02DD094A981870478020000401432E
:100A8000952A07DC9620821AD1404842002BF3D1E8
:100A90000800F1E7963A9140F7E7C046FFFFFF7F75
:100AA00070B5041E0ED000F0E3FE9E2301001B1A59
:100AB000962B0CDC08282CD008398C406402640A80
:100AC000D8B201E000200024C005204370BD992B5E
:100AD0000ADD020020001B3290400200501E8241BD
:100AE0000520401AC4401443052916DC22000F4893
:100AF0000240650709D00F252C40042C05D0043294
:100B0000540102D59F2302405B1A9201540AD8B2C5
:100B1000DAE764029620640AD6E74A1F944022006E
:100B2000024802406507F0D0E5E7C046FFFFFFFB43
:100B3000F0B557464E464546DE46E0B50C031F006D
:100B40004B0081469246050085B0240B5B0DCE0F0D
:100B5000002B00D152E1D24A934200D16EE1420F04
:100B6000E40014438022120422439046CD4AC5007B
:100B700093469B440023994600933C037B005046D8
:100B8000240B5B0DFF0F002B00D11AE1C44A9342E6
:100B900000D15EE1420FE400224380242404144388
:100BA000C04AC10094465A466344D31A9B4600206B
:100BB00033007B409A464B460F2B27D8BA4A9B00FE
:100BC000D3589F46B246009B022B16D0032B00D170
:100BD00087E2012B00D0D5E00023002200251B0571
:100BE00013435246D20713432800190005B0F0BC46
:100BF000BB46B246A946A046F0BD00220025A84B40
:100C0000EDE7BA46A0460D000090DCE7444500D26F
:100C1000C4E100D1BFE101235B429C462E00404667
:100C20000025E34423020C0E1C431B0C99462304AD
:100C30000A021F0C494600920197FFF7EBFA0200E7
:100C40007A430B04310C804619438A4207D90123A9
:100C50005B429C460919E0448C4200D801E2881AA4
:100C60004946FFF7D7FA019A360442430904360C85
:100C700003000E43B24204D93619013BB44200D8F6
:100C8000E9E1B01A4246009E12041A43330C1F00D9
:100C9000110C9046029313043204160C32001B0C04
:100CA0005A4303967B434E437943170CBC469B192A
:100CB00063449E4203D980267602B44661441E0CEA
:100CC000711816041B04360C9E19884202D312D1E7
:100CD000B54210D243465A1E009B9C4665441F00F5
:100CE0009D429B415B421B19C018844200D29EE189
:100CF00000D199E19046AE1BB542AD41401A6D421C
:100D0000401B844200D1D2E14946FFF783FA019AA1
:100D10000B044243310C050019438A4200D96CE1AF
:100D2000881A4946FFF776FA019A360442430904C5
:100D3000360C03000E43B24200D953E10398B61AB1
:100D400002002D041D43029F2B041B0C5A437B43BE
:100D50009C46290C4843130C8444634479439842CD
:100D600003D98020400284466144180C12041B04FD
:100D7000120C40189B18864200D200E100D1FBE023
:100D800001231D43494B5B44002B00DCAAE06A07AA
:100D900000D03DE1E9084246D20106D54246444B27
:100DA0001A4080239046DB005B44424A934200DDB8
:100DB00023E742465B05550752020D43120B5B0DBC
:100DC0000DE75146214300D17CE0002C00D1FBE02F
:100DD000200000F04DFD02000B3A1D239B1A5246E5
:100DE0000100DA40534608398B408C401900144307
:100DF000314B58449B4683440020D9E603002343EB
:100E0000984644D0002C00D1CFE0200000F030FD07
:100E1000010002000B391D235B1A49461000D9401E
:100E2000083884400B004D46234398468540234BA9
:100E30009B1A9B460023994600939EE6020022439C
:100E400090461DD108229B4602230025914600931F
:100E500093E65146214309D102234A461A43184BCF
:100E600091469C4600240220E344A1E603234A461F
:100E70001A43134B91469C4651460320E34497E6A0
:100E80000C229B460323A0469146009375E604235B
:100E9000994600239B460133002500936DE6C0462A
:100EA000FF07000001FCFFFF4C2C0008FF030000BF
:100EB000FFFFFFFEFE070000F30300000DFCFFFF35
:100EC00001F8FFFF4A4601231A43914600240120FE
:100ED0006EE6002380229A460025884B12037EE6A8
:100EE00001256D420122D21A382A00DD74E61F2A3C
:100EF00000DCBDE01F214942CB1A4146D9400B001E
:100F0000202A04D041467E4A5A4491400D4329008C
:100F10004A1E9141194307231D0000220D400B4238
:100F200000D1D0E00F2200230A40042A00D1C7E0FC
:100F30000A1D8A42894149425B1811001A0200D4F5
:100F4000BEE001230022002549E680224346120329
:100F5000134208D0144206D122431203BA460D00B0
:100F6000664B120B3BE68022434612031A431203E0
:100F7000B246624B120B32E6002B00D102E7A619F3
:100F80006A1EA64200D289E0864200D29FE000D1CC
:100F9000AFE01500F4E6A94200D93CE64346DE077F
:100FA00058086B081E43ED073CE600F061FC0100A9
:100FB0000200153120321C2900DC2CE74B46083892
:100FC00083400025984632E700F052FC03001A00E7
:100FD000153220301C2A00DCFFE65446083B002175
:100FE0009C4005E73619013BB44200D9A6E6B2425F
:100FF00000D8A3E6831E3619A0E60919013D8C42EC
:1010000000D98DE68A4200D88AE6851E091987E64E
:101010000F222A40042A00D1BCE6291DA942AD4175
:101020006D42C908A844B6E6AF4200D962E68142E3
:1010300004D800D05EE6AE4200D85BE602235B42F5
:101040009C46009BE0449C4665449D429B415B421C
:101050001B19C0184FE6B24200D812E6831E36199B
:101060000FE68A4200D8FAE5831E98460919F6E58C
:10107000244B28005B4441469D409940D0406B1E64
:101080009D41434601432943D3404A0700D155E7D8
:101090000F220A40042A00D04AE74FE71500864293
:1010A00000D06DE6009A9A4200D069E66AE6164BD7
:1010B0005B44002B00DC13E701250021A8446AE60D
:1010C0005D075B021A0BC90800230D4387E50099F1
:1010D000023D4A008A42BF417F423F19F619009201
:1010E000DDE78022434612031A431203034B120B1F
:1010F00075E500999942EAD31500D3E7FF07000090
:101100003E0400001E040000FF030000F0B5454649
:10111000DE4657464E46E0B51F000B031B0B9B46B1
:101120004D00CB0F04009146984687B06D0D00D15D
:10113000CDE1CE4B9D4200D1E9E15A46430FD200AA
:101140001343802212041A43C3009A46C84B9346A5
:101150009C4600230026654400933C037B004846E0
:10116000240B5B0DFF0F002B00D189E1BF4A934296
:1011700019D0420FE4002243802424041443BC4AC3
:1011800000219446424663445B190193019B7A40D7
:101190000133C000D2B202930A2E1CDD3A000B2E9E
:1011A0005ED0474656E04946B04B2143EB180193C9
:1011B00000292AD18020022200012B0084461643F8
:1011C000424663447A40D2B202930A2E00DD31E2F5
:1011D000002000240221022E26DC013E012E52D8DE
:1011E00002294CD0012900D018E100230024002559
:1011F0001B052343D20713432800190007B0F0BC96
:10120000BB46B246A946A046F0BD80210322090193
:101210002B008C461643424663447A40D2B2029376
:101220000A2E00DD28E203210125B540AC46A626A2
:101230006346F600354033420BD19026B600334268
:1012400018D1B93EFF3E1E421DD0A34682460091F2
:1012500000E0170000993A00022910D05C46504681
:101260000329BFD180231B031C43240305007F4BAC
:10127000240BBDE7802400227C4B2403B8E7002424
:1012800000257A4BB4E753461E04360C1F0C33007E
:10129000010C0004000C4343984603007B4399462D
:1012A00033004B439C4643460D001B0C9A467D433E
:1012B000CC44D4440095E14504D980235B0299468F
:1012C0004D44009563461B0C1D0063461B049C4661
:1012D00043461B041B0C9846634643440393230C6C
:1012E000984633002404240C63439C4623007B432C
:1012F000994643465E435F434E446346B2461E0CE6
:101300005644B14503D980235B0299464F44330CC0
:1013100099463B004B4405936346AC461F043F0C83
:101320003604F619B444634604935B461B0C9C4692
:101330005B461F043F0C3B004343994663464343CF
:101340009A464B4660461B0C9B46484379435144A2
:1013500059448A4503D980235B029A4650440B0CBA
:101360009A464B461B041B0C99463B0063430904F9
:1013700045464944994663465C436B439C464B460D
:101380001B0C98466F433F1947445044BC4203D955
:1013900080235B029846C444049B009D98464544C4
:1013A000B542B641734298464B461E04059B3C0429
:1013B0009946360CA4194C44A14683466E18C14484
:1013C0008E428941CB445D4649426D189C42A441FE
:1013D000C1459B41834580418D4289415B426442C6
:1013E0001C434042039B4942014370023F0C184397
:1013F000E419471EB84164186444F60D6102304395
:10140000EC0D6E020C433043C90100D4F1E0012120
:10141000430801400B43E007184364081549029B49
:101420008C466344002B00DC97E0410709D00F2174
:101430000140042905D0011D814280414042241809
:101440000800E10106D58021C9008C460A4B1C40EA
:10145000029B634409498B4200DD10E76107C50820
:1014600064025B050D43240B5B0DC1E6FF07000022
:1014700001FCFFFFFF030000FFFFFFFEFE0700006F
:101480004B46234359D0002C00D1A3E0200000F0AC
:10149000EFF9010003000B391D22521A49461800CA
:1014A000D1404A4608388240844010000C43744AB8
:1014B000EB1A9446424663440193019B7A40013300
:1014C0000021D2B202930A2E00DD67E683E65B4676
:1014D00003439A462AD05B46002B6DD0584600F055
:1014E000C7F9010003000B391D22521A2100180010
:1014F0005D46D140083885400A0084402A4393461F
:10150000A2465F4D0026ED1A0023009325E65B46B8
:1015100003439A4605D100239B46023308260093D5
:101520001BE6032382460C26009316E600239B4607
:1015300001330426002500930FE64246013301954E
:101540001E43019B7A400133002400200121D2B2C6
:1015500002930A2E00DD21E63DE60121C91A382951
:1015600000DD42E61F2947DD1F2625007642F31ADB
:10157000DD402B00202905D04249029D8C46654460
:10158000AC402043411E8841184307231D0000241E
:10159000054003424AD00F2300240340042B42D0CD
:1015A000031D8342804140422418180023023AD58B
:1015B0000123002400251BE600F05AF90100030076
:1015C000153120331C298FDD0838002284409246D3
:1015D000A34696E700F04CF90100030015312033D3
:1015E0001C2900DC58E702004C46083A00209440D1
:1015F0005DE7019B029311E7234B26009C46030005
:10160000029DCB406544AE401E430300AB40581ED4
:10161000834130001843CC404307C7D00F23034019
:10162000042BBDD1C2E765076402240BC008002368
:101630000543DDE5002502230F2E0CD180245B46F7
:10164000240323420ED021420CD10C4324033A0040
:101650000E4B240BCCE50B2E00D0A2E58B46AA4600
:101660000093F7E580245B4624031C432403424691
:101670005546064B240BBBE54D4621000323DBE713
:101680000DFCFFFF3E0400001E040000FF070000E9
:1016900070B5002816D0C317C5185D40C40F2800C8
:1016A00000F0E6F8114B1B1A0A2816DC02002E0087
:1016B000153296400B22121AD5405B052D032D0BD7
:1016C0005B0D03E000240023002500261B052B43AF
:1016D000E40723433000190070BD0B3885405B05DB
:1016E0002D0300262D0B5B0DF0E7C0461E04000005
:1016F0000200F0B54B000D03400F5B0DCC0F6D0ADF
:101700003A490543581CD70008420AD038495918AD
:10171000FE2916DDFF200022C0051043E407204308
:10172000F0BD002B06D13D4326D005229201520A7E
:10173000D8B2F1E72F43EDD08022D203FF202A4315
:10174000EAE700291BDD9201501E8241ED007F0F68
:101750002A433A43530747D00F231340042B00D0AA
:1017600004328023DB0413403ED0481CFE29D1D034
:101770009201520AC0B2CFE700200022CCE70A0053
:1017800017322FDB802636042E431E256D1A1F2D9F
:1017900011DD02225242521A3100D140202D04D0D4
:1017A000144A944663449E4037433A00531E9A417C
:1017B0000A430021CEE7104A38009446634498401B
:1017C0003A00411E88419E40EA40304302430021D6
:1017D0005307C1D180211300C90401200B400A42E4
:1017E000C6D1A3E70023A0E70B009FE7FE07000098
:1017F00080FCFFFFA2FCFFFF82FCFFFF8446080085
:101800006146FFE71FB500F0BDF8002801D40021B4
:10181000C8421FBD10B500F049F84042013010BD6C
:1018200010B500F0AFF8002801DB002010BD01204A
:1018300010BDC04610B500F0A5F8002801DD00205D
:1018400010BD012010BDC04610B500F055F80028AD
:1018500001DC002010BD012010BDC04610B500F015
:101860004BF8002801DA002010BD012010BDC04651
:101870001C2101231B04984201D3000C10391B0AC0
:10188000984201D3000A08391B09984201D3000984
:10189000043902A2105C40187047C04604030202DB
:1018A00001010101000000000000000070B54200CD
:1018B00045024E024C00C30F6D0A0120120E760A3B
:1018C000240EC90FFF2A06D0FF2C03D0A24201D15B
:1018D000B54206D070BD002DFCD1FF2CFAD1002EF0
:1018E000F8D18B4206D00120002AF3D12800431EF4
:1018F0009841EFE70020EDE770B5420045024E0247
:101900004C00C30F6D0A120E760A240EC80FFF2A70
:101910001BD0FF2C0ED0002A1BD1002C01D1002E91
:101920001CD0002D0CD083421CD00221581E084030
:10193000013870BD002E22D1002AF4D1002DF2D141
:101940000028F6D101204042F3E7002D17D1FF2CEB
:10195000F0D0002CE7D1002EE5D1E6E70020002DE5
:10196000E7D0E2E7A24205DCEADBB54202D8E7D3E2
:101970000020DEE74342584140000138D9E7022009
:101980004042D6E770B5420045024E024C00C30FFC
:101990006D0A120E760A240EC80FFF2A0BD0FF2CF8
:1019A0000DD0002A1FD1002C16D1002E14D10020FA
:1019B000002D10D009E0002D0CD1FF2C13D1002EEA
:1019C00008D1002A08D0834212D00221581E0840B4
:1019D000013800E0022070BD002DF4D10028FAD1BA
:1019E00001204042F7E7002CEDD1002EEBD1ECE7CF
:1019F000A24205DCF2DBB54202D8EFD30020EAE7D1
:101A00004342584140000138E5E7C04680B500AF89
:101A1000C046BD4680BD000080B582B000AF020068
:101A2000FB1D1A70FB1D1B787F2B09D8FB1D1B7833
:101A30001A001F231A40044B012191400A001A602A
:101A4000C046BD4602B080BD00E100E080B582B076
:101A500000AF0200FB1D1A70FB1D1B787F2B0AD8FC
:101A6000FB1D1B781A001F231340054901229A40D1
:101A7000C0235B00CA50C046BD4602B080BDC04610
:101A800000E100E090B583B000AF02003960FB1DBB
:101A90001A70FB1D1B787F2B28D82F4AFB1D1B7843
:101AA0005BB29B08C0339B009B58FA1D1278110053
:101AB00003220A40D200FF2191400A00D2431A407B
:101AC00011003B689B01FF221A40FB1D1B78180088
:101AD00003230340DB009A401F48FB1D1B785BB2C9
:101AE0009B080A43C0339B001A5031E01B4AFB1D80
:101AF0001B7819000F230B40083B9B0806339B0003
:101B0000D31804331B68FA1D1278110003220A400F
:101B1000D200FF2191400A00D2431A4011003B68D5
:101B20009B01FF221A40FB1D1B7818000323034072
:101B3000DB009A400948FB1D1B781C000F23234043
:101B4000083B9B080A4306339B00C31804331A6002
:101B5000C046BD4603B090BD00E100E000ED00E0EE
:101B600080B500AF134B1A6B124B802149010A4319
:101B70001A63114B9A68104B01210A439A600E4B6D
:101B80009A680D4B80210A439A600B4B9A680A4B66
:101B900020210A439A60084B9A68074B08210A43A0
:101BA0009A60054B054A5A61034B054A1A61C046C3
:101BB000BD4680BD0010024000300240058000009C
:101BC000FFFF000080B500AF234BDA6A224B0121F2
:101BD0000A43DA62A023DB051A68A023DB051F494C
:101BE0000A401A60A023DB051A68A023DB05AA219E
:101BF00009020A431A601A4B1A68194B10210A434A
:101C00001A60174B9A68164B10210A439A60144BBE
:101C1000DA68134B10210A43DA6000210720FFF72E
:101C200031FF0720FFF7F8FE0B4B5A6B0A4B802160
:101C300049010A435A630B4B40225A60094B0A4A36
:101C40001A6002211920FFF71DFF1920FFF7E4FE9B
:101C5000C046BD4680BDC04600100240FF00FFFFE9
:101C600000040140003001404308000080B500AF8F
:101C7000FFF776FFFFF7A6FFC046BD4680BD000018
:101C800080B500AF114B5B691022134017D0A02321
:101C9000DB051B69102213400BD10D4B42220021A2
:101CA000180000F05AFF0B4B9A680A4B01210A43B7
:101CB0009A60064B5A69054B10210A435A61072066
:101CC000FFF7C4FEC046BD4680BDC04600040140CB
:101CD000580000200030024090B593B000AF894B0F
:101CE0009B680122134000D104E1864BD968864BE2
:101CF0005B8F1A0089B2844B5200D152824B5B8FAA
:101D0000002B0DD1804B1B88DB0BDB039AB27E4B83
:101D10009A877D4B1B885B045B0C9AB27A4BDA87FF
:101D2000794B5B8F012B0AD1774B5B883B643B6C13
:101D30005BBAFB63FB6B99B2734B40229952724BB7
:101D40009B8F002B69D0704B5B8F19006E4B40222C
:101D50009B5A0233994200D0C6E04723FB18002269
:101D60001A700CE047203B181A786849664B5200FD
:101D7000D35A0B803B181A783B1801321A7047234C
:101D8000FB181B789AB2604B5B8F9A42EAD35F4B89
:101D90001B68BB63BB6B5BBA7B637B6B5A4A528F1E
:101DA0001100594A49008A5A934200D09CE04623C8
:101DB000FB1800221A70544BDA8F4523FB181A7057
:101DC0001EE046203B181B789A1C4F4B5200D35AFA
:101DD0003B633B6B5BBAFB62F96A4D4B1A68452467
:101DE0003B191B785B00D3188AB21A803B181A780B
:101DF0003B1801321A703B191A783B1901321A70DC
:101E00004523FB181A78404BDB8F18003E4B4021CE
:101E10005B5AC3189A42D4DB66E03B4B5B8F002BC6
:101E200008D13A4A384BDB8F1380374BDA8F354B6A
:101E3000DA6059E0344B5B8F012B16D1324B4022D4
:101E40009B5A3B623B6A5BBAFB61FA692F4B92B2C9
:101E50001A802D4B40229B5A1A002A4BBA62BA6A4A
:101E600052BA7A627A6ADA603EE0274B40229B5A85
:101E70000133254A528F934224DB254B1A68224BAB
:101E8000DB8F5B00D3181B883B613B695BBAFB604F
:101E9000FA681E4B92B21A801D4B1A681A4BDB8FE0
:101EA0005B00D3181B881A00164BBA61BA6952BA84
:101EB0007A617A69DA60144BDB8F01339AB2124B84
:101EC000DA8711E0104B5B8F19000F4B40229B5AB1
:101ED0000233994208D10D4B1A680A4BBA60BA68AE
:101EE00052BA7A607A68DA60074B5B8F01339AB234
:101EF000054B5A871920FFF7A9FDC046BD4613B010
:101F000090BDC04600300140580000200030024023
:101F10003800002080B582B000AF0200FB1D1A70AF
:101F2000FB1D1B787F2B09D8FB1D1B781A001F2374
:101F30001A40044B012191400A001A60C046BD4678
:101F400002B080BD00E100E080B582B000AF0200C9
:101F5000FB1D1A70FB1D1B787F2B10D8FB1D1B78F7
:101F60001A001F231340084901229A4013008022BF
:101F70008B50BFF34F8FC046BFF36F8FC046C04634
:101F8000BD4602B080BDC04600E100E080B582B031
:101F900000AF0200FB1D1A70FB1D1B787F2B0AD8B7
:101FA000FB1D1B781A001F231340054901229A408C
:101FB000C0235B00CA50C046BD4602B080BDC046CB
:101FC00000E100E090B583B000AF02003960FB1D76
:101FD0001A70FB1D1B787F2B28D82F4AFB1D1B78FE
:101FE0005BB29B08C0339B009B58FA1D127811000E
:101FF00003220A40D200FF2191400A00D2431A4036
:1020000011003B689B01FF221A40FB1D1B78180042
:1020100003230340DB009A401F48FB1D1B785BB283
:102020009B080A43C0339B001A5031E01B4AFB1D3A
:102030001B7819000F230B40083B9B0806339B00BD
:10204000D31804331B68FA1D1278110003220A40CA
:10205000D200FF2191400A00D2431A4011003B6890
:102060009B01FF221A40FB1D1B781800032303402D
:10207000DB009A400948FB1D1B781C000F232340FE
:10208000083B9B080A4306339B00C31804331A60BD
:10209000C046BD4603B090BD00E100E000ED00E0A9
:1020A00080B500AF114B1A68104B01210A431A602A
:1020B000C0460E4B1B6804221340042BF9D10B4B76
:1020C000DA680A4B03218A43DA60084BDA68074B67
:1020D00001210A43DA60C046044BDB680422134046
:1020E000042BF9D1C046C046BD4680BD0010024059
:1020F00080B500AF104BDA680F4B03218A43DA60DA
:102100000D4A0D4BD268DA60C0460B4BDB680C22DF
:102110001340FAD1084B1A68074B01218A431A6011
:10212000C046054B1B6804221340042BF9D0C0465F
:10213000C046BD4680BDC0460010024080B500AF1D
:102140002A4B5A6B294B04210A435A63C046274B3A
:102150005B6B04221340042BF9D1254B00229A62B9
:10216000234B00225A62224B224ADA62204B1A6D1C
:102170001F4B1C218A431A651D4B1A6D1C4B1421E1
:102180000A431A651A4B1A6A194B0A218A431A62C2
:10219000174B9A69164B0C218A439A61144B5A6B60
:1021A000134B120C12045A63114B9A69104B012104
:1021B0000A439A610E4BDA680D4B02210A43DA603A
:1021C0000B4B1A6A0A4B01210A431A62084B1A6820
:1021D000074B01210A431A6000211420FFF7F2FE89
:1021E0001420FFF797FEC046BD4680BD0010024098
:1021F00000080140FFFF000080B500AF1420FFF78A
:10220000A3FE084B5A6B074B04218A435A63C0460E
:10221000044B5B6B04221340042BF9D0C046C0462C
:10222000BD4680BD0010024080B582B000AF3A4B81
:102230001B690222134068D0374B5A6B374B5B8ABD
:1022400091B2364A5B00D31802330A1C1A80334B12
:102250005B8A072B06D8314B5B8A01339AB22F4B2E
:102260005A824CE001237B6017E02C4B9A8A2B4961
:102270007B685B00CB18023319887B68013B2748D9
:102280005B00C31802331B88CB1A9BB2D3189AB2D7
:10229000224B9A827B6801337B607B68072BE4D9F1
:1022A0001E4B9B8A07211800FDF72EFF03009AB2F0
:1022B0001A4B9A82194B9B8A1800FFF7E9F9184AC2
:1022C000184BFEF723FF02000B0000201649FEF713
:1022D0002FFC02000B0010001900FFF709FA021C86
:1022E0000E4B9A61FFF788FFFFF702FF0B4B0022AE
:1022F0001A700A4B00229A82084B00225A82064B1F
:102300001A69054B02218A431A611420FFF73EFE29
:10231000C046BD4602B080BD000801409C000020C0
:102320008DEDB5A0F7C6703E0000F03F80B582B0DD
:1023300000AF78600F4B1B78002B16D10D4B01229C
:102340001A70FFF7ADFEFFF7F9FE05E0094B1B78A9
:102350000133DAB2074B1A70064B1B78002BF5D10C
:10236000044B9A697B681A6000E0C046BD4602B023
:1023700080BDC0469C00002080B582B000AF020046
:10238000FB1D1A70FB1D1B787F2B09D8FB1D1B78CA
:102390001A001F231A40044B012191400A001A60C1
:1023A000C046BD4602B080BD00E100E080B582B00D
:1023B00000AF0200FB1D1A70FB1D1B787F2B0AD893
:1023C000FB1D1B781A001F231340054901229A4068
:1023D000C0235B00CA50C046BD4602B080BDC046A7
:1023E00000E100E090B583B000AF02003960FB1D52
:1023F0001A70FB1D1B787F2B28D82F4AFB1D1B78DA
:102400005BB29B08C0339B009B58FA1D12781100E9
:1024100003220A40D200FF2191400A00D2431A4011
:1024200011003B689B01FF221A40FB1D1B7818001E
:1024300003230340DB009A401F48FB1D1B785BB25F
:102440009B080A43C0339B001A5031E01B4AFB1D16
:102450001B7819000F230B40083B9B0806339B0099
:10246000D31804331B68FA1D1278110003220A40A6
:10247000D200FF2191400A00D2431A4011003B686C
:102480009B01FF221A40FB1D1B7818000323034009
:10249000DB009A400948FB1D1B781C000F232340DA
:1024A000083B9B080A4306339B00C31804331A6099
:1024B000C046BD4603B090BD00E100E000ED00E085
:1024C00080B500AF084B1A6D074B01210A431A650E
:1024D000C046054B1B6D02221340022BF9D1C046AA
:1024E000C046BD4680BDC0460010024080B500AF6A
:1024F000124B9A6B114B802149050A439A63104B8A
:102500001A680F4B802149000A431A600D4BCA22FA
:102510005A620C4B53225A620A4BDA68094B8021EB
:102520000A43DA60C046074BDB6840221340402B69
:10253000F9D1C046C046BD4680BDC046001002402D
:10254000007000400028004080B500AF0F4BDA68F3
:102550000E4B80218A43DA60C0460C4BDB68402278
:102560001340402BF9D0094B00225A62084B1A68DD
:10257000074B08490A401A60074B9A6B064B0749FC
:102580000A409A63C046BD4680BDC0460028004050
:1025900000700040FFFEFFFF00100240FFFFFFEF52
:1025A00090B583B000AF164B1800FFF7BFFEFFF7E2
:1025B0009DFFBB1D2A22FF321A80114B1B6886210A
:1025C000C905181CFDF744FE031CBC1D181CFDF7B3
:1025D00027FE03002380BB1D1A880A4BFE21C90376
:1025E0000A431A61BB1D1A88064BFE21C9030A4320
:1025F0001A61FFF7A9FFC046BD4603B090BDC046B3
:10260000000000200028004090B583B000AF786043
:102610002F4B9A6B2E4B802149050A439A632D4B11
:102620001A682C4B802149000A431A602A4BCA229F
:102630005A62294B53225A62274B9A68264B2749E4
:102640000A409A60244BDA68234B24490A40DA6036
:10265000234B1B682349181CFDF7FAFD031C1C1CA7
:102660007868FEF71DFA031C191C201CFDF70AFFF1
:10267000031C194C181CFDF7D3FD03006361164BB6
:102680009A68154B8821C9010A439A60164B9A68CB
:10269000154B802149030A439A60134B1A68124B69
:1026A000802149030A431A600B4B00225A62084BEF
:1026B0009A6B074B0D490A409A6301210220FFF7EC
:1026C00091FE0220FFF758FEC046BD4603B090BD04
:1026D000001002400070004000280040FFFBFFFF98
:1026E0000000002000007A4600040140FFFFFFEFD9
:1026F00080B500AF284B9A6B274B802149050A43D0
:102700009A63264B1A68254B802149000A431A60B8
:10271000234BCA225A62224B53225A62204B9A6898
:102720001F4B20490A409A601D4BDA681C4B1D491B
:102730000A40DA60C0461A4BDB6801221340012BC5
:10274000F9D1174BDA68164B16490A40DA60144B78
:10275000154ADA61124B9A68114B882149010A43E4
:102760009A60124B9A68114B802189020A439A6041
:102770000E4B1A680D4B802189020A431A60084BE0
:1027800000225A62044B9A6B034B09490A409A6330
:10279000C046BD4680BDC0460010024000700040EB
:1027A00000280040FFFEFFFF808080800004014081
:1027B000FFFFFFEF80B500AFFFF798FE1A4B9A6856
:1027C000194B1A490A409A60174BDA68164B174999
:1027D0000A40DA60C046144BDB6802221340022B29
:1027E000F9D1114BDA68104B10490A40DA600E4BF0
:1027F0000F4A1A620C4B9A680B4B882189010A43D5
:102800009A600C4B9A680B4B802189020A439A60AC
:10281000084B1A68074B802189020A431A60FFF7A8
:1028200093FEC046BD4680BD00280040FFFDFFFF6F
:10283000808080800004014080B500AFFFF740FE3B
:10284000254B9A6B244B802149050A439A63234BFD
:102850001A68224B802149000A431A601E4B1A6DE8
:102860001D4B802109030A431A651B4B1A6D1A4B35
:102870001B490A401A65184B1A6D174B80218902B3
:102880000A431A65144B1A6D134B8021C9020A437F
:102890001A65124B1A68114B12490A401A600E4B06
:1028A0009A6B0D4B10490A409A6300210220FFF7F2
:1028B00099FD0220FFF760FDFFF772FEFA239B00EF
:1028C0001800FFF7A1FEFFF713FF084B180000F0F8
:1028D000C5F8C046BD4680BD0010024000700040F3
:1028E000FFFFF7FFFFFEFFFFFFFFFFEF00000020ED
:1028F00080B500AF00F0EAF8174B9A6B164B8021B9
:1029000049050A439A63154B1A68144B8021490004
:102910000A431A60124BCA225A62114B53225A625E
:102920000F4BDA680E4B0F490A40DA600C4B00225D
:102930005A620A4B1A68094B0B490A401A60064B47
:102940009A6B054B09490A409A63094B802252034E
:102950005A61C046BD4680BD001002400070004074
:1029600000280040FFFBFFFFFFFEFFFFFFFFFFEF20
:102970000004014080B500AF164B9B889BB2013329
:102980009BB2144A191C9180002B06D1114BDB8895
:102990009BB201339AB20F4BDA800E4B9B889BB2ED
:1029A0003C211800FDF736FC0B009BB2002B01D137
:1029B000FFF7F6FDFFF79CFE074BDA68064B074969
:1029C0000A40DA60064B802292025A61C046BD4638
:1029D00080BDC0460400002000280040FFFEFFFF2D
:1029E0000004014080B500AFFFF7E4FE064BDA6853
:1029F000054B06490A40DA60054B802292025A6173
:102A0000C046BD4680BDC04600280040FFFDFFFF18
:102A10000004014080B500AF0F4BDA688023DB0073
:102A2000134002D0FFF764FF10E00B4BDA688023FD
:102A30005B00134002D0FFF79DFF07E0064BDA680A
:102A400080239B00134001D0FFF7CCFF0220FFF74B
:102A5000ADFCC046BD4680BD0028004090B583B0A7
:102A600000AF7860144B154A1A60134B144A1A6071
:102A7000114B07225A607B681B688721C905181C07
:102A8000FDF7E6FB031C0F49181CFDF7FBFC031CBC
:102A9000094C181CFDF7C4FB0300A360C046064B9D
:102AA000DB6803221340FAD1034B074A1A60C04681
:102AB000BD4603B090BDC04600300040CCCC000005
:102AC0005555000000002041AAAA000080B500AFC3
:102AD000024B034A1A60C046BD4680BD003000402C
:102AE000AAAA000080B500AF054B5A68044B0549FF
:102AF0000A405A60FFF7A0FEFFF7B8F8FEE7C046AD
:102B000000100240FF1FFFFF0D488546FEF77EFFC5
:102B10000C480D490D4A002302E0D458C450043338
:102B2000C4188C42F9D30A4A0A4C002301E013600E
:102B30000432A242FBD300F019F8FFF7D3FFFEE7FF
:102B400000200020000000203C000020942C000801
:102B50003C000020B8000020FEE7030082189342EA
:102B600000D1704719700133F9E7000070B50026F5
:102B70000C4C0D4D641BA410A64209D1002600F098
:102B800019F80A4C0A4D641BA410A64205D170BD69
:102B9000B300EB5898470136EEE7B300EB5898477F
:102BA0000136F2E78C2C00088C2C0008902C0008D1
:102BB0008C2C0008F8B5C046F8BC08BC9E4670478F
:0C2BC000F8B5C046F8BC08BC9E46704743
:102BCC0028040008B60300080A030008C202000823
:102BDC000A030008F20300080A030008C2020008F6
:102BEC00B6030008B6030008F2030008C20200088E
:102BFC00C8020008C8020008C80200080004000847
:102C0C00B6030008B60300080A030008BE02000859
:102C1C000A030008F20300080A030008BE020008B9
:102C2C00B6030008B6030008F2030008BE02000851
:102C3C00C8020008C8020008C8020008FC0300080B
:102C4C000C0C0008FA0B0008D80B0008020C00084A
:102C5C00D80B0008D20E0008D80B0008020C000894
:102C6C00FA0B0008FA0B0008D20E0008020C000840
:102C7C00C40B0008C40B0008C40B00084A0F000862
:042C8C00E900000853
:042C9000C100000877
:102C94000070144701000400000000000000000060
:102CA4000000881300006400000001000000000020
:102CB4000000000000000000000000000000000010
:0C2CC400000000000000000004000020E0
:0400000508002B09BB
:00000001FF
