:020000040800F2
:100000000020002061400008B1400008B140000815
:1000100000000000000000000000000000000000E0
:10002000000000000000000000000000B1400008D7
:100030000000000000000000B1400008B1400008CE
:10004000B1400008B1400008393E0008000000003F
:10005000B1400008B1400008B14000080537000871
:10006000B1400008B1400008B1400008B1400008AC
:10007000BD2A0008B1400008B1400008B1400008A6
:10008000B1400008B1400008B14000080000000085
:10009000652E0008B1400008B1400008B1400008DA
:1000A000B1400008C5370008B1400008B140000861
:1000B000B140000800000000B1400008B140000855
:1000C00010B5064C2378002B07D1054B002B02D02E
:1000D000044800E000BF0123237010BD5800002039
:1000E0000000000020410008044B10B5002B03D095
:1000F0000349044800E000BF10BDC04600000000F6
:100100005C00002020410008002243088B4274D389
:1001100003098B425FD3030A8B4244D3030B8B4208
:1001200028D3030C8B420DD3FF22090212BA030C11
:100130008B4202D31212090265D0030B8B4219D3F2
:1001400000E0090AC30B8B4201D3CB03C01A524112
:10015000830B8B4201D38B03C01A5241430B8B425A
:1001600001D34B03C01A5241030B8B4201D30B0343
:10017000C01A5241C30A8B4201D3CB02C01A52416A
:10018000830A8B4201D38B02C01A5241430A8B422D
:1001900001D34B02C01A5241030A8B4201D30B0216
:1001A000C01A5241CDD2C3098B4201D3CB01C01A30
:1001B000524183098B4201D38B01C01A524143093A
:1001C0008B4201D34B01C01A524103098B4201D328
:1001D0000B01C01A5241C3088B4201D3CB00C01A95
:1001E000524183088B4201D38B00C01A524143080D
:1001F0008B4201D34B00C01A5241411A00D2014632
:10020000524110467047FFE701B5002000F0F0F8BA
:1002100002BDC0460029F7D076E7704703460B437E
:100220007FD4002243088B4274D303098B425FD3EF
:10023000030A8B4244D3030B8B4228D3030C8B421B
:100240000DD3FF22090212BA030C8B4202D3121201
:10025000090265D0030B8B4219D300E0090AC30BD6
:100260008B4201D3CB03C01A5241830B8B4201D383
:100270008B03C01A5241430B8B4201D34B03C01A6C
:100280005241030B8B4201D30B03C01A5241C30AE4
:100290008B4201D3CB02C01A5241830A8B4201D355
:1002A0008B02C01A5241430A8B4201D34B02C01A3F
:1002B0005241030A8B4201D30B02C01A5241CDD2E4
:1002C000C3098B4201D3CB01C01A524183098B422F
:1002D00001D38B01C01A524143098B4201D34B0118
:1002E000C01A524103098B4201D30B01C01A52417B
:1002F000C3088B4201D3CB00C01A524183088B4202
:1003000001D38B00C01A524143088B4201D34B00EA
:10031000C01A5241411A00D201465241104670475C
:100320005DE0CA0F00D04942031000D34042534061
:1003300000229C4603098B422DD3030A8B4212D321
:10034000FC22890112BA030A8B420CD38901921153
:100350008B4208D3890192118B4204D389013AD090
:10036000921100E08909C3098B4201D3CB01C01A65
:10037000524183098B4201D38B01C01A5241430978
:100380008B4201D34B01C01A524103098B4201D366
:100390000B01C01A5241C3088B4201D3CB00C01AD3
:1003A000524183088B4201D38B00C01A5241D9D2EB
:1003B00043088B4201D34B00C01A5241411A00D26C
:1003C0000146634652415B10104601D34042002B68
:1003D00000D54942704763465B1000D3404201B5E7
:1003E000002000F005F802BD0029F8D016E770479C
:1003F0007047C046002B15D1002A13D1002906DB17
:1004000001DC002806D00020C043410802E0802122
:100410000906002007B4024801A14018029003BD5C
:10042000D1FFFFFF03B4684601B5029800F01EF843
:10043000019B9E4602B00CBC7047C0469E2110B581
:10044000C905041C01F070FD002803D1201C00F038
:10045000D3FD10BD9E21201CC90500F02DFC00F02D
:10046000CBFD80231B069C466044F2E7F8B5CE46E0
:10047000474680B59146984604000D0001F0AAFD5C
:1004800007000E0002000B004846414601F074FDD3
:10049000241A8D41089B380031001C605D60C0BC8F
:1004A000B946B046F8BDC046F8B54746CE464A0202
:1004B00043024500C40F500A804648005B0A000E04
:1004C0009209944680B51E00814602002D0EDF0081
:1004D000C90F8C4224D0281A00280EDD002A3ED1F4
:1004E0006246002A00D1FDE0421E012800D137E11A
:1004F000FF2800D1A9E0100039E0002863D04B4666
:10050000521B002D00D0E0E0002F00D1CEE0531EA2
:10051000012A00D155E1FF2A00D194E01A00D9E068
:100520002A1A002A00DC99E0002862D0FF2D00D1B1
:100530008BE080236146DB0419438C461B2A00DCD8
:10054000D2E00123DB195A016AD50135FF2D5BD0BA
:100550000122A3491A405B080B4013431CE0FF2D06
:1005600000D172E080236246DB041A4394461B28C4
:1005700000DC90E00123FB1A5A0151D59B019E0932
:10058000300001F0DBFC330005388340854200DC9D
:1005900075E0944A2D1A13405A0704D00F221A40CE
:1005A000042A00D004335A013CD5681CFE2D2BD000
:1005B0009B015E0AC0B2C0053043E4072043C0BCC3
:1005C000B946B046F8BDFE206A1C104272D1002D1B
:1005D00000D0AEE0002F00D1ECE063460020002BFD
:1005E000E9D0FB1A5A0100D4F3E063460C00DB1B90
:1005F000D2E7614600295BD0511E012A00D1A7E055
:10060000FF2A22D00A0099E7FF200026D3E7FE2127
:100610006A1C114273D0FF2AF6D0150067447B088C
:100620005A07BBD1DB08FF2D0FD05B025E0AE8B290
:10063000C1E76246002A08D08022D203134204D0C8
:100640004046104201D10C004346002BDCD08026EE
:10065000F6031E437602FF20760AACE7002AD6D0C6
:10066000421B002D5CD0FF28EED08023DB041F430B
:100670001B2A00DC82E001234D46634463E720220D
:10068000401B0130121A19009340C1405A1E934179
:1006900000250B4380E7202361461B1A99406246E0
:1006A0000B00C240591E8B41134364E70C004346C4
:1006B0001500B8E76346FE1A730145D4002E00D03A
:1006C0005EE700240020002675E7FF2BBBD08023C7
:1006D000DB041F431B2A47DD012362460C004D4605
:1006E000D31A49E705009EE761462023D1409B1AB3
:1006F00062469A4013005A1E93410B4322E7002D95
:1007000046D1002F62D063460020002B00D152E773
:100710003B0063445A0183D5324A013513407FE7D9
:10072000002FC4D0531E012A12D0FF2A8CD01A00E9
:100730009EE7002F00D07CE76346002B83D1802604
:100740000024FF20F60336E763460C00DE1B17E7A4
:100750003B00634401255A0100D461E70225F7E616
:1007600063460125FB1A07E720239B1A38009F40A8
:100770003B00D0405A1E93410343AEE720239B1A0F
:1007800039009F403B00D1405A1E93410B4373E711
:10079000002F00D158E76246002A00D155E7802299
:1007A000D203134200D150E74146114200D04CE73A
:1007B00043464AE76346002B83D00C0046460020A0
:1007C000F9E663460C00DB1B0135D5E64646002002
:1007D000F1E6002B00D023E700240026EBE6C0461C
:1007E000FFFFFF7DFFFFFFFBF0B54F464646D646B5
:1007F0004502C0B547000C1C6D0A3F0EC60F002F06
:1008000000D16FE0FF2F00D174E0002380229946D1
:100810009A46ED00D20415437F3F63025B0A984677
:1008200063001B0EE40F002B4DD0FF2B45D042463A
:100830008021D200C9041143884600227F3B310049
:10084000FF1A4B466140C9B20F2B00D9B8E070487F
:100850009B00C3589F460023984626004546924673
:100860005346022B00D18DE0032B00D1A1E0012BD8
:1008700018D03B007F33002B6DDD6A0704D00F22B8
:100880002A40042A00D004352A0103D5614B1D40BB
:100890003B008033FE2B00DD74E0AA01520AD8B27F
:1008A00002E00E0000200022C005F607104330438E
:1008B000E0BCBA46B146A846F0BD4346002B3FD146
:1008C0000222FF3F03E04346002B2DD101223100DD
:1008D0004B466140C9B213430F2B38D84E489B009A
:1008E000C3589F46002D13D104239946033B00278C
:1008F0009A4692E7002D05D108239946063BFF272B
:100900009A468AE70C239946093BFF279A4684E7D3
:10091000280001F013FB7627431F9D4000237F42F0
:1009200099469A463F1A78E7404601F007FB42464F
:10093000431F9A4076235B4290461B1A00227EE7B3
:1009400003234A461A439146FC33032277E70E00FD
:10095000FF200022A8E70122D31A1B2BA2DC9E371E
:100960002A00BD40DA406B1E9D4115436A0704D042
:100970000F222A40042A00D004356A0144D5012000
:10098000002291E7FF2000228EE780220026FF2030
:10099000D20389E7002398468022D203154208D06B
:1009A0004346134205D11A4352022600FF20520A41
:1009B0007AE78022D2032A435202FF20520A73E7C9
:1009C00042466B015501AB421AD21B200022013F67
:1009D00001261C0052005B00002C01DB9D4201D867
:1009E0005B1B324301380028F3D1581E8341134367
:1009F0001D003B007F330E00002B00DD3DE7AAE722
:100A00001A2001225B1BE3E7AA010020520A4BE7F0
:100A100038410008FFFFFFF77841000843025B0AF6
:100A2000F0B54F4646469946D646C30F4500984610
:100A3000C0B54B460F1C2D0E00D1CBE0FF2D00D1D1
:100A4000CFE08022DB00D2041A4300239146002627
:100A50009A467F3D7C027B00640A1B0EFF0F002B31
:100A600000D1A9E0FF2B11D08022E400D20414436E
:100A700042467F3B5B197A400020D2B25D1C0A2EB1
:100A800013DD3A000B2E47D047463FE02B00FF33E3
:100A9000002C1ED102221643424601357A40D2B2C2
:100AA000FF350A2E00DDE4E00220022E1CDC013EB0
:100AB000012E42D802283DD0012866D10020002115
:100AC000C0050843D2071043E0BCBA46B146A84669
:100AD000F0BD03221643424601357A40D2B2FF35BB
:100AE0000A2E00DDE4E003200121B140A626F60035
:100AF00031420AD19026B600314216D1B93EFF3EAE
:100B00000E421AD0A146824600E0170053463A0032
:100B1000022B0FD04C4650460328CDD18021C9036B
:100B200021434902FF20490ACAE780210022FF2011
:100B3000C903C5E7FF200021C2E7200C4946240471
:100B4000240C27000E0C0904090C74434F43464340
:100B50004843390C001909188C4203D980204002FF
:100B6000844666443F0408043F0CC0198401671E94
:100B7000BC41090C800E8919044389010C43090109
:100B800071D5012361081C400C432B007F33002BDF
:100B900051DD610704D00F212140042900D0043425
:100BA000210103D5434B1C402B008033FE2BC1DCBD
:100BB000A101490AD8B283E7002C2CD10123424677
:100BC0001E432B007A400120D2B25D1C0A2E00DDAC
:100BD00057E76AE7002B10D10123042600259A4627
:100BE00038E7002B04D102230826FF259A4631E777
:100BF00003230C26FF259A462CE7484601F09EF970
:100C00004A46431F76259A4000236D4291460026AE
:100C10009A462D1A1EE7200001F090F94246431F24
:100C20009C402B1A763B7A400020D2B25D1C0A2EE3
:100C300000DD26E739E70121CB1A1B2B00DD3DE75C
:100C40009E352100AC40D940631E9C4121434B0797
:100C500004D00F230B40042B00D004314B0104D5EA
:100C6000012000212CE71D008FE789010020490A9F
:100C700026E702230F2E0CD180214B46C9030B42DD
:100C80000DD00C420BD1214349023A00FF20490A02
:100C900016E70B2E00D0F7E6A1469A4636E78021EC
:100CA0004B46C903194349024246FF20490A07E758
:100CB0000323DFE7FFFFFFF7F0B5C64643025B0AF9
:100CC0004500DA00C40F48024F009446420A1E0055
:100CD000904600B52D0E3F0EC90F8009FF2F59D049
:100CE000012251408C4239D0EA1B002A58DD002FE6
:100CF00068D0FF2D00D1D1E08023DB0418431B2AEC
:100D000000DCE3E001236246D31A5A0100D4ACE0D0
:100D10009B019E09300001F011F933000538834032
:100D2000854200DCC6E0B24A2D1A13405A0704D0AF
:100D30000F221A40042A00D004335A0100D497E04D
:100D40006A1CFE2D00D184E09B015E0AD2B2D00560
:100D50003043E407204380BCB846F0BDEA1B002ABC
:100D600041DD002F6BD0FF2D00D197E08023DB0405
:100D700018431B2A00DCCCE0012363445A0174D5DC
:100D80000135FF2D65D001229A491A405B080B40BE
:100D90001343CBE700281FD08C4222D02A00FF3A11
:100DA000002A35D07A1B002D00D099E06346002B35
:100DB00000D1DDE0531E012A00D105E1FF2A6BD0EE
:100DC0001A0094E0002873D0511E012A00D1DFE000
:100DD000FF2A63D00A0092E701225140A14200D0CD
:100DE00082E72A00FF3A002A36D07A1B002D00D174
:100DF000AAE0FF2F00D1DAE080236146DB0419432B
:100E00008C461B2A00DCD4E001233D001B18B5E70B
:100E1000FE276A1C174271D1002D00D09EE0634668
:100E2000002B00D1D5E00022002800D18FE71B1A4B
:100E30005E0100D4D6E063460C00C31A76E70028B2
:100E400036D0511E012A00D19AE0FF2A26D00A008E
:100E50008FE7FF2200267AE7FE276A1C174262D03E
:100E6000FF2AF6D01500604443085A0700D05FE718
:100E7000DB08FF2D12D05B025E0AEAB267E762462A
:100E8000002A00D193E0002808D08022D203134228
:100E900004D04046104201D10C004346002BD8D06C
:100EA0008026F6031E437602FF22760A4FE743466A
:100EB0001500DEE72022401B0130121A1900934072
:100EC000C1405A1E934100250B432FE720239B1A54
:100ED000010098400300D1405A1E93410B4312E792
:100EE000FF2FD9D080236446DB041C43A4461B2A71
:100EF00052DD01230C003D00C31A06E763461E1AAB
:100F0000730139D4002E00D004E70024002200260B
:100F10001DE720239B1A010098400300D1405A1E70
:100F200093410B4329E7002DA9D16346002B56D0EE
:100F30000022002800D10AE7030063445A0194D537
:100F40002B4A0135134090E76346002BAFD0531E68
:100F5000012A15D0FF2A2AD01A0052E76246002A39
:100F600091D1002898D180260024FF22F603EEE6D6
:100F70000C00434615007CE763460C00C61AC9E620
:100F80000300634401255A0100D46EE70225FAE606
:100F9000634601251B1AB8E664462023D4409B1AF9
:100FA00062469A4013005A1E93412343A2E74346E8
:100FB00074E761462023D1409B1A62469A40130091
:100FC0005A1E93410B4320E763460C000125C31AC8
:100FD0009BE6002899D00C0046460022B7E646461C
:100FE0000022B4E6002B00D03FE700240026AEE646
:100FF000FFFFFFFBFFFFFF7D41024200C30F490AD5
:101000000020120E7E2A03DD9D2A02DD094A98186F
:101010007047802000040143952A07DC9620821A3D
:10102000D1404842002BF3D10800F1E7963A9140B5
:10103000F7E7C046FFFFFF7F70B5002813D0C31746
:10104000C5185D40C40F280000F078FF9E23010002
:101050001B1A962B0FDC082831D008398D406D0201
:101060006D0AD8B202E0002400200025C005284304
:10107000E407204370BD992B0CDD0522121A2800CD
:10108000D040020008001B3085402800451EA841C2
:1010900002431500052916DC2A000F4802406E079E
:1010A00009D00F263540042D05D00432550102D554
:1010B0009F2302405B1A9201550AD8B2D6E76D020F
:1010C00096206D0AD2E74A1F95402A000248024046
:1010D0006E07F0D0E5E7C046FFFFFFFB70B5041ECA
:1010E0000ED000F02BFF9E2301001B1A962B0CDC68
:1010F00008282CD008398C406402640AD8B201E078
:1011000000200024C005204370BD992B0ADD020099
:1011100020001B3290400200501E82410520401AE0
:10112000C4401443052916DC22000F48024065071D
:1011300009D00F252C40042C05D00432540102D5CF
:101140009F2302405B1A9201540AD8B2DAE7640284
:101150009620640AD6E74A1F9440220002480240C3
:101160006507F0D0E5E7C046FFFFFFFBF0B5574647
:101170004E464546DE46E0B50C031F004B00814657
:101180009246050085B0240B5B0DCE0F002B00D1DD
:1011900052E1D24A934200D16EE1420FE40014437F
:1011A0008022120422439046CD4AC50093469B44B8
:1011B0000023994600933C037B005046240B5B0DB3
:1011C000FF0F002B00D11AE1C44A934200D15EE127
:1011D000420FE4002243802424041443C04AC10087
:1011E00094465A466344D31A9B46002033007B4002
:1011F0009A464B460F2B27D8BA4A9B00D3589F4696
:10120000B246009B022B16D0032B00D187E2012BA4
:1012100000D0D5E00023002200251B0513435246D1
:10122000D20713432800190005B0F0BCBB46B246F4
:10123000A946A046F0BD00220025A84BEDE7BA461E
:10124000A0460D000090DCE7444500D2C4E100D187
:10125000BFE101235B429C462E0040460025E3444B
:1012600023020C0E1C431B0C994623040A021F0C7C
:10127000494600920197FEF7CDFF02007A430B0426
:10128000310C804619438A4207D901235B429C46B0
:101290000919E0448C4200D801E2881A4946FEF759
:1012A000B9FF019A360442430904360C03000E4389
:1012B000B24204D93619013BB44200D8E9E1B01A70
:1012C0004246009E12041A43330C1F00110C904634
:1012D000029313043204160C32001B0C5A4303967B
:1012E0007B434E437943170CBC469B1963449E4293
:1012F00003D980267602B44661441E0C7118160488
:101300001B04360C9E19884202D312D1B54210D26A
:1013100043465A1E009B9C4665441F009D429B41CC
:101320005B421B19C018844200D29EE100D199E1B2
:101330009046AE1BB542AD41401A6D42401B8442FF
:1013400000D1D2E14946FEF765FF019A0B04424302
:10135000310C050019438A4200D96CE1881A4946CC
:10136000FEF758FF019A360442430904360C030085
:101370000E43B24200D953E10398B61A02002D047D
:101380001D43029F2B041B0C5A437B439C46290C94
:101390004843130C844463447943984203D9802022
:1013A000400284466144180C12041B04120C4018BD
:1013B0009B18864200D200E100D1FBE001231D43CF
:1013C000494B5B44002B00DCAAE06A0700D03DE1FA
:1013D000E9084246D20106D54246444B1A408023D2
:1013E0009046DB005B44424A934200DD23E74246DD
:1013F0005B05550752020D43120B5B0D0DE751467D
:10140000214300D17CE0002C00D1FBE0200000F063
:1014100095FD02000B3A1D239B1A52460100DA404B
:10142000534608398B408C4019001443314B5844C3
:101430009B4683440020D9E603002343984644D0CA
:10144000002C00D1CFE0200000F078FD0100020068
:101450000B391D235B1A49461000D94008388440D7
:101460000B004D46234398468540234B9B1A9B46D1
:101470000023994600939EE60200224390461DD128
:1014800008229B46022300259146009393E651468D
:10149000214309D102234A461A43184B91469C46E0
:1014A00000240220E344A1E603234A461A43134BD7
:1014B00091469C4651460320E34497E60C229B4606
:1014C0000323A0469146009375E604239946002322
:1014D0009B460133002500936DE6C046FF070000E0
:1014E00001FCFFFFB8410008FF030000FFFFFFFE03
:1014F000FE070000F30300000DFCFFFF01F8FFFFF3
:101500004A4601231A439146002401206EE6002337
:1015100080229A460025884B12037EE601256D4203
:101520000122D21A382A00DD74E61F2A00DCBDE051
:101530001F214942CB1A4146D9400B00202A04D032
:1015400041467E4A5A4491400D4329004A1E91412A
:10155000194307231D0000220D400B4200D1D0E0AB
:101560000F2200230A40042A00D1C7E00A1D8A4244
:10157000894149425B1811001A0200D4BEE00123E0
:101580000022002549E6802243461203134208D078
:10159000144206D122431203BA460D00664B120BC9
:1015A0003BE68022434612031A431203B246624BC3
:1015B000120B32E6002B00D102E7A6196A1EA642E2
:1015C00000D289E0864200D29FE000D1AFE0150052
:1015D000F4E6A94200D93CE64346DE0758086B080A
:1015E0001E43ED073CE600F0A9FC010002001531A6
:1015F00020321C2900DC2CE74B46083883400025AC
:10160000984632E700F09AFC03001A0015322030A9
:101610001C2A00DCFFE65446083B00219C4005E7FD
:101620003619013BB44200D9A6E6B24200D8A3E67F
:10163000831E3619A0E60919013D8C4200D98DE6BA
:101640008A4200D88AE6851E091987E60F222A40B9
:10165000042A00D1BCE6291DA942AD416D42C9084A
:10166000A844B6E6AF4200D962E6814204D800D071
:101670005EE6AE4200D85BE602235B429C46009BDE
:10168000E0449C4665449D429B415B421B19C01847
:101690004FE6B24200D812E6831E36190FE68A42A0
:1016A00000D8FAE5831E98460919F6E5244B280070
:1016B0005B4441469D409940D0406B1E9D4143464E
:1016C00001432943D3404A0700D155E70F220A407E
:1016D000042A00D04AE74FE71500864200D06DE6A5
:1016E000009A9A4200D069E66AE6164B5B44002BEA
:1016F00000DC13E701250021A8446AE65D075B02D0
:101700001A0BC90800230D4387E50099023D4A00E2
:101710008A42BF417F423F19F6190092DDE78022DD
:10172000434612031A431203034B120B75E500994B
:101730009942EAD31500D3E7FF0700003E040000FA
:101740001E040000FF030000F0B54546DE46574684
:101750004E46E0B51F000B031B0B9B464D00CB0F05
:1017600004009146984687B06D0D00D1CDE1CE4B77
:101770009D4200D1E9E15A46430FD2001343802233
:1017800012041A43C3009A46C84B93469C46002352
:101790000026654400933C037B004846240B5B0D08
:1017A000FF0F002B00D189E1BF4A934219D0420FAD
:1017B000E4002243802424041443BC4A00219446BC
:1017C000424663445B190193019B7A400133C00098
:1017D000D2B202930A2E1CDD3A000B2E5ED0474691
:1017E00056E04946B04B2143EB18019300292AD11A
:1017F0008020022200012B008446164342466344A7
:101800007A40D2B202930A2E00DD31E20020002499
:101810000221022E26DC013E012E52D802294CD094
:10182000012900D018E10023002400251B052343D3
:10183000D20713432800190007B0F0BCBB46B246DC
:10184000A946A046F0BD8021032209012B008C4649
:101850001643424663447A40D2B202930A2E00DD18
:1018600028E203210125B540AC46A6266346F600D2
:10187000354033420BD19026B600334218D1B93EE1
:10188000FF3E1E421DD0A3468246009100E0170095
:1018900000993A00022910D05C4650460329BFD176
:1018A00080231B031C43240305007F4B240BBDE74F
:1018B000802400227C4B2403B8E7002400257A4BC7
:1018C000B4E753461E04360C1F0C3300010C000411
:1018D000000C4343984603007B43994633004B4337
:1018E0009C4643460D001B0C9A467D43CC44D44491
:1018F0000095E14504D980235B0299464D4400954B
:1019000063461B0C1D0063461B049C4643461B0498
:101910001B0C9846634643440393230C98463300BC
:101920002404240C63439C4623007B43994643468E
:101930005E435F434E446346B2461E0C5644B14577
:1019400003D980235B0299464F44330C99463B00F0
:101950004B4405936346AC461F043F0C3604F6190E
:10196000B444634604935B461B0C9C465B461F04D1
:101970003F0C3B0043439946634643439A464B46DC
:1019800060461B0C9B4648437943514459448A4561
:1019900003D980235B029A4650440B0C9A464B466F
:1019A0001B041B0C99463B0063430904454649440C
:1019B000994663465C436B439C464B461B0C9846DA
:1019C0006F433F1947445044BC4203D980235B0214
:1019D0009846C444049B009D98464544B542B64190
:1019E000734298464B461E04059B3C049946360CB0
:1019F000A4194C44A14683466E18C1448E428941C5
:101A0000CB445D4649426D189C42A441C1459B416F
:101A1000834580418D4289415B4264421C43404280
:101A2000039B4942014370023F0C1843E419471ECF
:101A3000B84164186444F60D61023043EC0D6E0247
:101A40000C433043C90100D4F1E0012143080140B7
:101A50000B43E007184364081549029B8C46634416
:101A6000002B00DC97E0410709D00F210140042939
:101A700005D0011D81428041404224180800E10147
:101A800006D58021C9008C460A4B1C40029B63444A
:101A900009498B4200DD10E76107C50864025B0558
:101AA0000D43240B5B0DC1E6FF07000001FCFFFFA7
:101AB000FF030000FFFFFFFEFE0700004B4623432D
:101AC00059D0002C00D1A3E0200000F037FA01002B
:101AD00003000B391D22521A49461800D1404A46CC
:101AE00008388240844010000C43744AEB1A944634
:101AF000424663440193019B7A4001330021D2B2F4
:101B000002930A2E00DD67E683E65B4603439A46AE
:101B10002AD05B46002B6DD0584600F00FFA01002A
:101B200003000B391D22521A210018005D46D140D6
:101B3000083885400A0084402A439346A2465F4DF8
:101B40000026ED1A0023009325E65B4603439A46E0
:101B500005D100239B460233082600931BE603238E
:101B600082460C26009316E600239B46013304268A
:101B7000002500930FE64246013301951E43019B69
:101B80007A400133002400200121D2B202930A2EB0
:101B900000DD21E63DE60121C91A382900DD42E6D3
:101BA0001F2947DD1F2625007642F31ADD402B0052
:101BB000202905D04249029D8C466544AC40204313
:101BC000411E8841184307231D000024054003429D
:101BD0004AD00F2300240340042B42D0031D83422C
:101BE000804140422418180023023AD501230024E2
:101BF00000251BE600F0A2F9010003001531203397
:101C00001C298FDD0838002284409246A34696E7BF
:101C100000F094F901000300153120331C2900DC89
:101C200058E702004C46083A002094405DE7019BCB
:101C3000029311E7234B26009C460300029DCB40F4
:101C40006544AE401E430300AB40581E8341300044
:101C50001843CC404307C7D00F230340042BBDD10A
:101C6000C2E765076402240BC00800230543DDE5D5
:101C7000002502230F2E0CD180245B46240323422F
:101C80000ED021420CD10C4324033A000E4B240BFE
:101C9000CCE50B2E00D0A2E58B46AA460093F7E5D3
:101CA00080245B4624031C43240342465546064BCE
:101CB000240BBBE54D4621000323DBE70DFCFFFFB2
:101CC0003E0400001E040000FF07000070B500285D
:101CD00016D0C317C5185D40C40F280000F02EF9B8
:101CE000114B1B1A0A2816DC02002E0015329640F2
:101CF0000B22121AD5405B052D032D0B5B0D03E063
:101D000000240023002500261B052B43E407234362
:101D10003000190070BD0B3885405B052D0300268F
:101D20002D0B5B0DF0E7C0461E04000070B54202AB
:101D30004300C40FFE201B0E591C550A08420CD04C
:101D4000E02189008C466D07120B63441B05134389
:101D5000E40723432800190070BD002B14D1002D87
:101D60001BD0280000F0EAF80A281CDC0B232A000C
:101D70001B1ADA40030015339D400E4B12031B1A49
:101D80005B05120B5B0DE1E7002D09D0130B8022E0
:101D900012031A436D07084BD8E700230022D5E74A
:101DA0000022054BD2E703002A000B3B9A40002596
:101DB000E3E7C04689030000FF0700000200F0B51A
:101DC0004B000D03400F5B0DCC0F6D0A3A490543E4
:101DD000581CD70008420AD038495918FE2916DD88
:101DE000FF200022C0051043E4072043F0BD002B74
:101DF00006D13D4326D005229201520AD8B2F1E71E
:101E00002F43EDD08022D203FF202A43EAE70029A6
:101E10001BDD9201501E8241ED007F0F2A433A43A1
:101E2000530747D00F231340042B00D004328023E4
:101E3000DB0413403ED0481CFE29D1D09201520A47
:101E4000C0B2CFE700200022CCE70A0017322FDB18
:101E5000802636042E431E256D1A1F2D11DD022209
:101E60005242521A3100D140202D04D0144A9446D7
:101E700063449E4037433A00531E9A410A4300216F
:101E8000CEE7104A38009446634498403A00411E19
:101E900088419E40EA403043024300215307C1D1AC
:101EA00080211300C90401200B400A42C6D1A3E7D8
:101EB0000023A0E70B009FE7FE07000080FCFFFF68
:101EC000A2FCFFFF82FCFFFF844608006146FFE79B
:101ED0001FB500F0D1F9002801D40021C8421FBD70
:101EE00010B500F05DF94042013010BD10B500F0B2
:101EF000C3F9002801DB002010BD012010BDC04641
:101F000010B500F0B9F9002801DD002010BD012056
:101F100010BDC04610B500F069F9002801DC0020B2
:101F200010BD012010BDC04610B500F05FF90028BB
:101F300001DA002010BD012010BDC0461C21012384
:101F40001B04984201D3000C10391B0A984201D39C
:101F5000000A08391B09984201D30009043902A27A
:101F6000105C40187047C0460403020201010101E1
:101F70000000000000000000F0B5CE469946030CBA
:101F80009C46130447461B0C1D000E0061460404CA
:101F9000240C80B50700100C4B436543414360435C
:101FA0002C0CC01820188C46834203D980235B0276
:101FB0009846C444494679435643030C2D042D0CDE
:101FC0008919634400044019C918C0BCB946B04619
:101FD000F0BDC046F0B557464E464546DE46E0B534
:101FE0000F001900002306009846100083B0002F50
:101FF00007DA33003C0000275E42A74101235B4221
:102000009846002907DA4346DB430C009846030054
:1020100000215842A14134003D0082468946B94220
:1020200069D866D04946504600F06AF983463900BF
:10203000300000F065F95B461B1A9C46203B6BD4D0
:10204000514699409B4660460B00514681400A002C
:10205000BB4200D973E0BB4200D17AE034003D00BE
:102060005946A41A9D41002900DA75E0002100209C
:1020700001260090019159468E4001966146012645
:102080008E4061460096002960D0D90756080E435D
:102090005F086146012200230CE0AF4201D1A64255
:1020A0000AD8A41BBD4124196D410139A4185D4112
:1020B000002906D0AF42F0D9013924196D41002919
:1020C000F8D1009801995B4600196941002B4EDB5D
:1020D0002E002C00DE406346DC405B46002B56DBC6
:1020E00034009C4023006446A6403200801A994187
:1020F00003E0B04296D9002000214346002B04D0D3
:1021000003000C0000215842A14103B0F0BCBB46C3
:10211000B246A946A046F0BD624648469B462023EB
:10212000514690409B1AD9400300009100996046A7
:102130000B43514681400A00BB4200D88BE7002187
:10214000002000900191614600299ED100980199DC
:10215000D3E7B142F3D881E7614620260127761AFA
:1021600000200021F74000900191019786E7624628
:1021700020239B1A2A009A40260013006246D6406C
:102180002C001E436346DC405B46002BA8DA624607
:102190002023350094409B1ADD4023002B43A2E707
:1021A00070B5420045024E024C00C30F6D0A01207B
:1021B000120E760A240EC90FFF2A06D0FF2C03D078
:1021C000A24201D1B54206D070BD002DFCD1FF2C3A
:1021D000FAD1002EF8D18B4206D00120002AF3D18B
:1021E0002800431E9841EFE70020EDE770B542005C
:1021F00045024E024C00C30F6D0A120E760A240EE1
:10220000C80FFF2A1BD0FF2C0ED0002A1BD1002C98
:1022100001D1002E1CD0002D0CD083421CD00221F5
:10222000581E0840013870BD002E22D1002AF4D17A
:10223000002DF2D10028F6D101204042F3E7002D15
:1022400017D1FF2CF0D0002CE7D1002EE5D1E6E726
:102250000020002DE7D0E2E7A24205DCEADBB54230
:1022600002D8E7D30020DEE743425841400001385E
:10227000D9E702204042D6E770B5420045024E023F
:102280004C00C30F6D0A120E760A240EC80FFF2AE7
:102290000BD0FF2C0DD0002A1FD1002C16D1002E00
:1022A00014D10020002D10D009E0002D0CD1FF2CFE
:1022B00013D1002E08D1002A08D0834212D0022167
:1022C000581E0840013800E0022070BD002DF4D1F6
:1022D0000028FAD101204042F7E7002CEDD1002E72
:1022E000EBD1ECE7A24205DCF2DBB54202D8EFD33A
:1022F0000020EAE74342584140000138E5E7C04684
:1023000010B5002903D1FFF719FE203002E00800C4
:10231000FFF714FE10BDC04680B500AFC046BD46F5
:1023200080BD0000B0B500AF214B9A68DB6801208A
:10233000002112184B411E498A60CB601D4B5B89FE
:1023400019B21B4B1A685B680C00C9170D001219F3
:102350006B4117490A604B60164B5B891AB2144BEC
:1023600014215B5E9A4205DA124B5B891AB2104B5C
:102370009A820CE00F4B5B891AB20D4B10215B5E09
:102380009A4204DD0B4B5B891AB2094B1A82084B47
:1023900018685968064B9A68DB68FEF72BF802004C
:1023A0000B0012B2024B5A82C046BD46B0BDC046B9
:1023B000780000200000002080B500AF0D49002209
:1023C00000230A604B600B49002200238A60CB6027
:1023D000094B5B891AB2074B1A82074B5B891AB209
:1023E000044B5A82044B5B891AB2024B9A82C04654
:1023F000BD4680BD780000200000002080B582B07E
:1024000000AF78600A4B10229A5E7B681A80084BF6
:1024100012229A5E7B685A80054B14229A5E7B6872
:102420009A80FFF7C9FFC046BD4602B080BDC046D6
:1024300078000020B0B500AF0B4B0C4A1A600C4B73
:102440009B881AB2084B1C681000FEF7F5FD031CB0
:10245000191C201CFEF7C8F9031C1A1C024B1A6039
:10246000C046BD46B0BDC046900000203DA29C4580
:102470000000002080B500AF084B9B8E9BB2180077
:10248000FEF72CFE031C0649181CFEF7ADF9031CD1
:102490001A1C044B9A60C046BD4680BD0C0000204B
:1024A0000000C84290000020B0B582B000AF786054
:1024B0001B4B1B681B49181CFEF796F9031C181CC4
:1024C000FFF734FC04000D007868FFF7FFFB020003
:1024D0000B0020002900FFF737F902000B00140061
:1024E0001D000F4B9B68181CFFF720FC02000B001F
:1024F00020002900FEF73AFE02000B001000190030
:102500000022094BFFF720F902000B001000190010
:10251000FFF754FC031C181CBD4602B0B0BDC046FA
:102520009000002000F07F45006AF84080B582B03E
:1025300000AF786010497868FEF756F9031C1A1C42
:102540000E4B9B68191C101CFEF768FA031C0C4903
:10255000181CFEF763FA031C1A1C084B1B68191C95
:10256000101CFEF741F9031C181CFEF745FD030083
:102570001800BD4602B080BD0050C3479000002047
:1025800000F07F4580B500AFFFF754FF044B180003
:1025900001F0A6FCFFF76EFFC046BD4680BDC046F9
:1025A0009400002080B586B000AF3B1D18001023BA
:1025B0001A00002101F07DFD3B1D180000F01CFDFC
:1025C000FFF7E0FF264B5B899AB23B1D1A80244B34
:1025D0009B899AB23B1D5A803B1D0C229B5E1800C2
:1025E000FFF762FF031C181CFEF706FD03001AB27A
:1025F0003B1D9A813B1D0E229B5E1800FFF754FF86
:10260000031C181CFEF7F8FC03001AB23B1DDA810C
:102610003B1D5B881B041A003B1D1B8813437B6119
:102620007B697F2213400F4A1B01391DD3181022EA
:10263000180001F06BFD0A4B5B899BB201339BB222
:10264000074A191C5181002B06D1054B9B899BB26F
:1026500001339AB2024B9A81C046BD4606B080BD96
:102660000C000020F000002080B582B000AF3B00DD
:10267000180006231A00002101F01BFD3B00180082
:10268000FFF7BCFEFFF77EFF3B0000229B5E1800B9
:10269000FFF70AFF031C181CFEF7AEFC03001AB27A
:1026A000104B9A803B0002229B5E1800FFF7FCFE55
:1026B000031C181CFEF7A0FC03001AB2094BDA80B9
:1026C0003B0004229B5E1800FFF7EEFE031C181C63
:1026D000FEF792FC03001AB2024B1A81C046BD46B7
:1026E00002B080BD0C00002080B582B000AFFFF7C3
:1026F00049FF1E4B9B8D1BB21800FEF79DFC031C6F
:10270000181CFFF713FF0200BB1D1A80174BDB8D4F
:102710009BB21800FEF7E2FC031C181CFFF706FF33
:1027200003009AB2124B9A80114B9A88BB1D1B88EA
:10273000D3189BB21AB20E4BDA80BB1D1A880C4B11
:102740009B88D31A9BB21AB2094B1A81074B1B8D77
:102750009BB21B041A00054BDB8C9BB21A43044B43
:102760001A60C046BD4602B080BDC0460C000020C5
:10277000BC00002080B500AF00F080F9FFF7D2FD6B
:1027800000F0D0FC0300022B01D1FFF70BFFC04685
:10279000BD4680BD80B500AF00F066F9FFF7EAFFE7
:1027A000FFF7A2FFC046BD4680BD000080B582B0E5
:1027B00000AF0200FB1D1A70FB1D1B787F2B09D890
:1027C000FB1D1B781A001F231A40044B0121914066
:1027D0000A001A60C046BD4602B080BD00E100E0BC
:1027E00080B582B000AF0200FB1D1A70FB1D1B7884
:1027F0007F2B0AD8FB1D1B781A001F2313400549A5
:1028000001229A40C0235B00CA50C046BD4602B0B8
:1028100080BDC04600E100E090B583B000AF02008B
:102820003960FB1D1A70FB1D1B787F2B28D82F4A9F
:10283000FB1D1B785BB29B08C0339B009B58FA1DA5
:102840001278110003220A40D200FF2191400A00B1
:10285000D2431A4011003B689B01FF221A40FB1D26
:102860001B78180003230340DB009A401F48FB1D20
:102870001B785BB29B080A43C0339B001A5031E0BF
:102880001B4AFB1D1B7819000F230B40083B9B08BC
:1028900006339B00D31804331B68FA1D127811000D
:1028A00003220A40D200FF2191400A00D2431A407D
:1028B00011003B689B01FF221A40FB1D1B7818008A
:1028C00003230340DB009A400948FB1D1B781C00D2
:1028D0000F232340083B9B080A4306339B00C31881
:1028E00004331A60C046BD4603B090BD00E100E06D
:1028F00000ED00E080B582B000AF00237B6002E015
:102900007B6801337B607B68034A9342F8DDC046F5
:10291000C046BD4602B080BD1F4E000080B500AF6E
:102920000A4B1A6B094B01210A431A63084B042214
:102930005A60074B074ADA60054B074A9A60044B16
:10294000064A1A60C046BD4680BDC046001002401F
:10295000080002400000002040240140A1250000A2
:1029600080B500AF1D4B5A6B1C4B802189000A4378
:102970005A631B4B1B4A1A61194B9A68184B9021DA
:1029800009060A439A60C046154B9B68002BFBDB87
:10299000154B1A68144BC02109040A431A60104BE6
:1029A000124A9A620E4BDA680D4B11490A43DA60FB
:1029B0000B4B5A680A4B08210A435A60084B9A6825
:1029C000074B01210A439A6001210C20FFF724FFE5
:1029D0000C20FFF7EBFEC046BD4680BD0010024054
:1029E000002401401D0100C008270140000306002B
:1029F00003C0000080B500AF0E4BDA6A0D4B022118
:102A00000A43DA620C4B1A680B4B30210A431A60F6
:102A1000094B1A68084B20218A431A60064B9A69B1
:102A2000054B04210A439A61FFF764FFC046BD4687
:102A300080BDC046001002400004005080B500AFC9
:102A4000074B9A69064B8021C9020A439A61054BDC
:102A5000DA6A044B02218A43DA62C046BD4680BD71
:102A6000000400500010024080B500AFFFF756FF91
:102A7000FFF776FFC046BD4680BD000080B500AFC1
:102A80000C4B1B78DBB2012B11D00A4B01221A70C0
:102A9000FFF7B0FF084B9A68074B04210A439A607E
:102AA000C046044B1B78DBB2012BFAD000E0C046D5
:102AB000BD4680BD9C0000200024014080B500AFD1
:102AC000164B1B6808221340082B20D1144B1B887F
:102AD0001BB29AB2124B5B881BB29BB2D31A9BB249
:102AE0001AB20F4B5A810E4B5B891BB29BB2023359
:102AF0009BB21AB20A4B5A81084B1A68074B08213D
:102B00000A431A60FFF79AFF064B00221A700C2046
:102B1000FFF766FEC046BD4680BDC04600240140AA
:102B2000000000209C00002080B582B000AF0200B1
:102B3000FB1D1A70FB1D1B787F2B09D8FB1D1B7812
:102B40001A001F231A40044B012191400A001A6009
:102B5000C046BD4602B080BD00E100E080B582B055
:102B600000AF0200FB1D1A70FB1D1B787F2B10D8D5
:102B7000FB1D1B781A001F231340084901229A40AD
:102B8000130080228B50BFF34F8FC046BFF36F8F6F
:102B9000C046C046BD4602B080BDC04600E100E070
:102BA00080B582B000AF0200FB1D1A70FB1D1B78C0
:102BB0007F2B0AD8FB1D1B781A001F2313400549E1
:102BC00001229A40C0235B00CA50C046BD4602B0F5
:102BD00080BDC04600E100E090B583B000AF0200C8
:102BE0003960FB1D1A70FB1D1B787F2B28D82F4ADC
:102BF000FB1D1B785BB29B08C0339B009B58FA1DE2
:102C00001278110003220A40D200FF2191400A00ED
:102C1000D2431A4011003B689B01FF221A40FB1D62
:102C20001B78180003230340DB009A401F48FB1D5C
:102C30001B785BB29B080A43C0339B001A5031E0FB
:102C40001B4AFB1D1B7819000F230B40083B9B08F8
:102C500006339B00D31804331B68FA1D1278110049
:102C600003220A40D200FF2191400A00D2431A40B9
:102C700011003B689B01FF221A40FB1D1B781800C6
:102C800003230340DB009A400948FB1D1B781C000E
:102C90000F232340083B9B080A4306339B00C318BD
:102CA00004331A60C046BD4603B090BD00E100E0A9
:102CB00000ED00E080B500AF114B1A68104B012108
:102CC0000A431A60C0460E4B1B6804221340042BB3
:102CD000F9D10B4BDA680A4B03218A43DA60084BBF
:102CE000DA68074B01210A43DA60C046044BDB680F
:102CF00004221340042BF9D1C046C046BD4680BD16
:102D00000010024080B500AF104BDA680F4B032172
:102D10008A43DA600D4A0D4BD268DA60C0460B4B2D
:102D2000DB680C221340FAD1084B1A68074B0121CB
:102D30008A431A60C046054B1B6804221340042BCB
:102D4000F9D0C046C046BD4680BDC0460010024016
:102D500080B582B000AF0200FB1D1A70324B5A6B77
:102D6000314B04210A435A63C0462F4B5B6B04224C
:102D70001340042BF9D12D4B00229A622B4B0022D9
:102D80005A622A4B2A4ADA62284B1A6D274B1C21B9
:102D90008A431A65FB1D1B78002B06D1234B1A6D45
:102DA000224B14210A431A6509E0FB1D1B78012BF5
:102DB00005D11E4B1A6D1D4B0C210A431A651B4B86
:102DC0001A6A1A4B0A218A431A62184B9A69174BDE
:102DD0000C218A439A61154B5A6B144B120C120446
:102DE0005A63124B9A69114B01210A439A610F4BA6
:102DF000DA680E4B02210A43DA600C4B1A6A0B4B5D
:102E000001210A431A62094B1A68084B01210A433F
:102E10001A6000211420FFF7DFFE1420FFF784FE64
:102E2000C046BD4602B080BD00100240000801400F
:102E3000FFFF000080B500AF1420FFF78FFE084BA6
:102E40005A6B074B04218A435A63C046044B5B6BA1
:102E500004221340042BF9D0C046C046BD4680BDB5
:102E60000010024080B582B000AF3A4B1B690222CD
:102E7000134068D0374B5A6B374B5B8A91B2364A56
:102E80005B00D31802330A1C1A80334B5B8A072B72
:102E900006D8314B5B8A01339AB22F4B5A824CE0F1
:102EA00001237B6017E02C4B9A8A2B497B685B00DF
:102EB000CB18023319887B68013B27485B00C31895
:102EC00002331B88CB1A9BB2D3189AB2224B9A8238
:102ED0007B6801337B607B68072BE4D91E4B9B8AA0
:102EE00007211800FDF710F903009AB21A4B9A82D5
:102EF000194B9B8A1800FEF7E9FE184A184BFEF79B
:102F000023FC02000B0000201649FEF72FF90200F7
:102F10000B0010001900FEF751FF021C0E4B9A61C6
:102F2000FFF788FFFFF7EEFE0B4B00221A700A4BEB
:102F300000229A82084B00225A82064B1A69054BDE
:102F400002218A431A611420FFF72AFEC046BD46BB
:102F500002B080BD00080140A00000208DEDB5A0AA
:102F6000F7C6703E0000F03F80B582B000AF0200AF
:102F70003960FB1D1A70154B1B78002B22D1134BA7
:102F800001221A70FFF796FEFB1D1B781800FFF751
:102F9000DFFE05E00D4B1B780133DAB20B4B1A70E4
:102FA0000A4B1B78002BF5D1084B9A693B681A60D5
:102FB000064B9B69181CFDF741FA03009AB2044BBB
:102FC000DA8600E0C046BD4602B080BDA000002009
:102FD0000C00002080B500AF054B2822002118000E
:102FE00001F067F8024B034A9A83C046BD4680BD94
:102FF000C800002001F0FFFF80B582B000AF78600C
:103000007A68064B100010331022190001F07EF888
:10301000FFF7E0FFC046BD4602B080BDC8000020FB
:1030200080B500AF064B1B889AB2064B9A82044BC0
:103030005B889AB2034BDA82C046BD4680BDC0466B
:103040000C000020C8000020B0B500AF1A4B9A68F1
:10305000DB680120002112184B4117498A60CB60C0
:10306000164B5B8919B2144B1A685B680C00C917C0
:103070000D0012196B4110490A604B600F4B5B89C0
:103080001AB20D4B1C215B5E9A4204DD0B4B5B892F
:103090001AB2094B9A83084B18685968064B9A680C
:1030A000DB68FDF7A7F902000B0012B2024BDA83CE
:1030B000C046BD46B0BDC046C8000020000000208C
:1030C00080B582B000AF154B9A68DB6801204042A2
:1030D000C11712184B4111498A60CB600F4B9A6897
:1030E000DB6813007B607B689BB2FF2213409AB2BF
:1030F0000A4B1A837B681B0C9BB2FF2213409AB2C7
:10310000064B5A83064B1B687A689A4201D8002303
:1031100000E001231800BD4602B080BDC8000020B9
:10312000BC00002080B500AF1A4B20229B5C002B16
:1031300013D1194B5B891AB2184B06215B5E9A4278
:1031400009DB144B202201219954FFF769FFFFF797
:103150007BFF01231BE0002319E0FFF775FF0E4BF7
:103160005B891AB20D4B08215B5E9A420EDA094B5D
:10317000202200219954FFF7A3FF0300012B01D166
:10318000022304E0FFF726FF002300E001231800DC
:10319000BD4680BDC800002000000020BC0000200B
:1031A00080B500AF064B5A68054B06490A405A6085
:1031B000034A034B52685A60C046BD4680BDC046B4
:1031C00000100240FF1FFFFF80B500AF074B5A6899
:1031D000064B07490A405A60044B5A68034BC0210A
:1031E00009020A435A60C046BD4680BD0010024035
:1031F000FF1FFFFF80B500AF114B9A6B104B802172
:10320000C9010A439A630F4B00225A600D4BD12229
:1032100092001A600A4BDA6A094B02210A43DA6209
:10322000094B1A68084B1202120A1A60064B1A68F8
:10323000054BA92109060A431A60C046BD4680BD58
:1032400000100240003800400004005080B500AF7C
:103250000A4B9A6B094B0A490A409A63074BDA6A90
:10326000064B02210A43DA62064B1A68054BFF211E
:1032700009060A431A60C046BD4680BD00100240E0
:10328000FFBFFFFF0004005080B582B000AF020016
:10329000FB1D1A70C0460B4B9B6802221340FAD0EC
:1032A000084BFA1D1278DA60C046064B9B68012273
:1032B0001340FAD0034BDB68DBB21800BD4602B006
:1032C00080BDC04600380040B0B584B000AF3A6061
:1032D000BB1D021C1A803B1D0A1C1A801E4B9A69DA
:1032E0001D4B802149050A439A610320FFF7CCFF5B
:1032F000BB1D1B881B0A9BB2DBB21800FFF7C4FF83
:10330000BB1D1B88DBB21800FFF7BEFF0E23FB18A6
:1033100000221A800EE00E257B191B883A68D4180B
:103320000020FFF7B1FF030023707B191A887B1977
:1033300001321A800E23FA183B1D12881B889A420C
:10334000E9D3054B9A69044B802149010A439A61EC
:10335000C046BD4604B0B0BD0004005090B585B075
:1033600000AF3A60BB1D021C1A803B1D0A1C1A806C
:10337000264B9A69254B802149050A439A6106200C
:10338000FFF782FF214B9A69204B802149010A43B4
:103390009A611E4B9A691D4B802149050A439A6127
:1033A0000220FFF771FFBB1D1B881B0A9BB2DBB21B
:1033B0001800FFF769FFBB1D1B88DBB21800FFF781
:1033C00063FF0E23FB1800221A800DE00E243B1928
:1033D0001B883A68D3181B781800FFF755FF3B1974
:1033E0001A883B1901321A800E23FA183B1D1288E5
:1033F0001B889A42EAD3054B9A69044B8021490104
:103400000A439A61C046BD4605B090BD0004005015
:1034100080B500AFFFF7EEFE054B1A000A21002031
:10342000FFF79CFFFFF712FFC046BD4680BDC046B8
:103430003200002080B500AFFFF7DCFE054B1A001C
:103440000A210020FFF740FFFFF700FFC046BD46FE
:1034500080BDC0463200002080B582B000AF0200BF
:10346000FB1D1A70FB1D1B787F2B09D8FB1D1B78D9
:103470001A001F231A40044B012191400A001A60D0
:10348000C046BD4602B080BD00E100E080B582B01C
:1034900000AF0200FB1D1A70FB1D1B787F2B0AD8A2
:1034A000FB1D1B781A001F231340054901229A4077
:1034B000C0235B00CA50C046BD4602B080BDC046B6
:1034C00000E100E090B583B000AF02003960FB1D61
:1034D0001A70FB1D1B787F2B28D82F4AFB1D1B78E9
:1034E0005BB29B08C0339B009B58FA1D12781100F9
:1034F00003220A40D200FF2191400A00D2431A4021
:1035000011003B689B01FF221A40FB1D1B7818002D
:1035100003230340DB009A401F48FB1D1B785BB26E
:103520009B080A43C0339B001A5031E01B4AFB1D25
:103530001B7819000F230B40083B9B0806339B00A8
:10354000D31804331B68FA1D1278110003220A40B5
:10355000D200FF2191400A00D2431A4011003B687B
:103560009B01FF221A40FB1D1B7818000323034018
:10357000DB009A400948FB1D1B781C000F232340E9
:10358000083B9B080A4306339B00C31804331A60A8
:10359000C046BD4603B090BD00E100E000ED00E094
:1035A00080B500AF134B1A6B124B802149010A43BF
:1035B0001A63114B9A68104B01210A439A600E4B13
:1035C0009A680D4B80210A439A600B4B9A680A4B0C
:1035D00020210A439A60084B9A68074B08210A4346
:1035E0009A60054B054A5A61034B054A1A61C04669
:1035F000BD4680BD00100240003002400580000042
:10360000FFFF000080B500AF234BDA6A224B012197
:103610000A43DA62A023DB051A68A023DB051F49F1
:103620000A401A60A023DB051A68A023DB05AA2143
:1036300009020A431A601A4B1A68194B10210A43EF
:103640001A60174B9A68164B10210A439A60144B64
:10365000DA68134B10210A43DA6000210720FFF7D4
:1036600031FF0720FFF7F8FE0B4B5A6B0A4B802106
:1036700049010A435A630B4B40225A60094B0A4ADC
:103680001A6000211920FFF71DFF1920FFF7E4FE43
:10369000C046BD4680BDC04600100240FF00FFFF8F
:1036A00000040140003001404308000080B500AF35
:1036B000FFF776FFFFF7A6FFC046BD4680BD0000BE
:1036C00080B582B000AF0D4B9B8A9BB21B041A00E1
:1036D0000A4B5B8A9BB213437B607B687F2213405B
:1036E00006491620064A1B010818D3181022190093
:1036F00000F00CFDC046BD4602B080BD0C000020AD
:10370000F000002080B500AF294B5B691022134008
:1037100047D0A023DB051B69102213401FD1FFF700
:1037200053FDA023DB051A68A023DB05C021890116
:103730000A431A60A023DB051A68A023DB051D4994
:103740000A401A601C4B48220021180000F0B1FC0E
:103750001A4B9A68194B01210A439A601BE0A02377
:10376000DB051A68A023DB05C02189010A431A6022
:10377000A023DB051A68A023DB0511490A401A6063
:10378000A023DB059A69A023DB058021C9030A4336
:103790009A61FFF705FD064B5A69054B10210A4354
:1037A0005A610720FFF772FEC046BD4680BDC04685
:1037B00000040140FFEFFFFFF0080020003002404E
:1037C000FFDFFFFF80B592B000AFB14B9B680122D5
:1037D000134000D155E1AE4BD968AE4B40229B5A05
:1037E0001A0089B2AB4B5200D152AA4B40229B5ACD
:1037F000002B0FD1A74B1B88DB0BDB0399B2A54B2A
:1038000042229952A34B1B885B045B0C99B2A14BDB
:10381000442299529F4B40229B5A012B0AD19D4B27
:103820005B883B643B6C5BBAFB63FB6B99B2994B67
:1038300046229952974B42229B5A002B00D198E086
:10384000944B40229B5A1900924B46229B5A0233BA
:10385000994200D00DE14723FB1800221A700CE0BA
:1038600047203B181A788C498A4B5200D35A0B8058
:103870003B181A783B1801321A704723FB181B7843
:103880009AB2844B40215B5A9A42E9D3824B1B681F
:10389000BB63BB6B5BBA7B637B6B7E4A4021525A36
:1038A00011007C4A49008A5A934200D0E1E0462345
:1038B000FB1800221A70774B44229A5A4523FB18B2
:1038C0001A7048E04623FB181B789A1C714B520073
:1038D000D35A3B633B6B5BBAFB62F96A6F4B1A6866
:1038E00045203B181B785B00D3188AB21A803B181E
:1038F0001B78132B0BD03B181B78142B07D03B18CD
:103900001B78162B03D03B181B78172B04D1FEF71E
:10391000EBFEFFF77DFD12E04523FB181B78092B1A
:1039200004D1FFF7CDFEFFF773FD08E04523FB1838
:103930001B78152B03D100F09FF9FFF769FD462195
:103940007B181A787B1801321A7045217B181A7877
:103950007B1801321A704523FB181A784D4B44210D
:103960005B5A18004B4B46215B5AC3189A42A9DB9D
:103970007FE0484B40229B5A002B0AD1464A454BD8
:1039800044215B5A1380434B44229A5A404BDA60DD
:103990006FE0404B40229B5A012B16D13D4B4622F3
:1039A0009B5A3B623B6A5BBAFB61FA693A4B92B243
:1039B0001A80384B46229B5A1A00354BBA62BA6AB3
:1039C00052BA7A627A6ADA6053E0324B46229B5AE4
:1039D0000133304A4021525A934237DB2D4B442267
:1039E0009B5A022B09D12E4B1B78DBB2002B04D142
:1039F000FEF73AFE2A4B1E221A70284B1A68254BF6
:103A000044215B5A5B00D3181B883B613B695BBA5E
:103A1000FB60FA68204B92B21A80204B1A681D4B4B
:103A200044215B5A5B00D3181B881A00184BBA61FB
:103A3000BA6952BA7A617A69DA60164B44229B5AA3
:103A4000013399B2134B4422995212E0114B402298
:103A50009B5A19000F4B46229B5A0233994208D1B8
:103A60000D4B1A680A4BBA60BA6852BA7A607A6823
:103A7000DA60084B40229B5A013399B2054B402231
:103A800099521920FFF702FDC046BD4612B080BD15
:103A900000300140F0080020003002404C000020BF
:103AA0003809002080B582B000AF0200FB1D1A70FB
:103AB000FB1D1B787F2B09D8FB1D1B781A001F23C9
:103AC0001A40044B012191400A001A60C046BD46CD
:103AD00002B080BD00E100E080B582B000AF02001E
:103AE000FB1D1A70FB1D1B787F2B0AD8FB1D1B7852
:103AF0001A001F231340054901229A40C0235B008E
:103B0000CA50C046BD4602B080BDC04600E100E0DC
:103B100090B583B000AF02003960FB1D1A70FB1D29
:103B20001B787F2B28D82F4AFB1D1B785BB29B0884
:103B3000C0339B009B58FA1D1278110003220A40E3
:103B4000D200FF2191400A00D2431A4011003B6885
:103B50009B01FF221A40FB1D1B7818000323034022
:103B6000DB009A401F48FB1D1B785BB29B080A4391
:103B7000C0339B001A5031E01B4AFB1D1B78190013
:103B80000F230B40083B9B0806339B00D3180433DC
:103B90001B68FA1D1278110003220A40D200FF218F
:103BA00091400A00D2431A4011003B689B01FF225A
:103BB0001A40FB1D1B78180003230340DB009A40CA
:103BC0000948FB1D1B781C000F232340083B9B0862
:103BD0000A4306339B00C31804331A60C046BD462F
:103BE00003B090BD00E100E000ED00E080B500AF63
:103BF000084B1A6D074B01210A431A65C046054B55
:103C00001B6D02221340022BF9D1C046C046BD46AF
:103C100080BDC0460010024090B583B000AF144B89
:103C200019000020FFF7A0F9BB1D2A22FF321A80DD
:103C30000F4B1B688621C905181CFCF7D5FD031C1A
:103C4000BC1D181CFCF7FAFB03002380BB1D1A885F
:103C5000084BFE21C9030A431A61BB1D1A88054B94
:103C6000FE21C9030A431A61C046BD4603B090BD98
:103C70005000002000280040B0B500AF334B9A6BD5
:103C8000324B802149050A439A63314B1A68304B05
:103C9000802149000A431A602E4BCA225A622D4BDA
:103CA00053225A622B4B9A682A4B2B490A409A603E
:103CB000284BDA68274B28490A40DA60274B1B68F3
:103CC0002749181CFCF790FD031C1C1C254B5B8D21
:103CD0009BB21800FDF7B0F9031C191C201CFCF75F
:103CE0009DFE031C2049181CFCF798FE031C194C70
:103CF000181CFCF7A3FB03006361164B9A68154B75
:103D00008821C9010A439A60184B9A68174B802191
:103D100049030A439A60154B1A68144B80214903E2
:103D20000A431A600B4B00225A62084B9A6B074BEE
:103D30000F490A409A6302210220FFF7E9FE0220A0
:103D4000FFF7B0FEC046BD46B0BDC0460010024001
:103D50000070004000280040FFFBFFFF50000020E3
:103D600000007A460C00002000007A440004014064
:103D7000FFFFFFEF80B500AFFFF738FFFFF74CFF05
:103D8000274B180000F00CF9264B9A6B254B80212D
:103D900049050A439A63244B1A68234B8021490042
:103DA0000A431A601F4B1A6D1E4B802109030A43F8
:103DB0001A651C4B1A6D1B4B1C490A401A65194B9E
:103DC0001A6D184B802149000A431A65C046154BED
:103DD0001A6D80239B001A4080239B009A42F6D1E3
:103DE000104B1A6D0F4B802149020A431A650D4B87
:103DF0001A6D0C4B8021C9020A431A650A4B1A68D6
:103E0000094B0B490A401A60064B9A6B054B09494E
:103E10000A409A63FFF730FFC046BD4680BDC046EA
:103E2000500000200010024000700040FFFFF7FF2C
:103E3000FFFEFFFFFFFFFFEF80B500AF224BDA6808
:103E40008023DB00134038D000F0E2F81F4B1B88C2
:103E50009BB201339BB21D4A191C1180002B06D165
:103E60001A4B5B889BB201339AB2184B5A80174B9E
:103E70001B889BB23C211800FCF7CCF90B009BB2CD
:103E8000002B01D1FFF7C8FE114B1B78DBB2002BD2
:103E900006D00F4B1B78DBB2013BDAB20C4B1A7029
:103EA0000C4B01221A70084BDA68074B0A490A408A
:103EB000DA600A4B802252035A610220FFF70CFE9F
:103EC000C046BD4680BDC046002800400C00002012
:103ED0003809002054000020FFFBFFFF00040140D0
:103EE00080B586B000AF7860274BDB881BB21A0024
:103EF00013009B009B185A019B185B001A00962325
:103F000059001000FCF78AF903001800FDF794F837
:103F1000031C7B611D4B1B881800FDF7DFF8031C99
:103F20003B611B4B1B881800FDF7D8F8031CFB6096
:103F300039697869FCF7C0FE031CBB601549B86895
:103F4000FCF76CFD031CBB603969F868FCF7B4FE34
:103F5000031C191CB868FCF747FC031CBB600E4926
:103F6000B868FCF7A1FA031CBB607B68BA681A60EA
:103F7000B868FDF741F803001AB2084B1A87C0462B
:103F8000BD4606B080BDC046000000207A00F81F84
:103F90007E00F81F0000C8420000F0410C00002025
:103FA00090B583B000AF7860144B154A1A60134B7C
:103FB000144A1A60114B07225A607B681B688721DC
:103FC000C905181CFCF710FC031C0F49181CFCF752
:103FD00025FD031C094C181CFCF730FA0300A360F4
:103FE000C046064BDB6803221340FAD1034B074A55
:103FF0001A60C046BD4603B090BDC04600300040C8
:10400000CCCC00005555000000002041AAAA0000B9
:1040100080B500AF024B034A1A60C046BD4680BD62
:1040200000300040AAAA000080B500AFFFF7A2FE52
:10403000FFF700FAFEF7AEFBFFF738FB074B1B78E4
:10404000DBB2012BFAD1FFF7BFF8FEF793FBFFF7C6
:10405000A7F8024B00221A70F0E7C0465400002077
:104060000D488546FEF758F90C480D490D4A0023C6
:1040700002E0D458C4500433C4188C42F9D30A4A1D
:104080000A4C002301E013600432A242FBD300F08B
:1040900019F8FFF7C9FFFEE700200020000000200C
:1040A0005800002008420008580000203C09002069
:1040B000FEE703008218934200D170471970013364
:1040C000F9E7000070B500260C4C0D4D641BA410E0
:1040D000A64209D1002600F023F80A4C0A4D641BC1
:1040E000A410A64205D170BDB300EB589847013625
:1040F000EEE7B300EB5898470136F2E700420008BC
:10410000004200080442000800420008002310B5E5
:104110009A4200D110BDCC5CC4540133F8E70000D2
:10412000F8B5C046F8BC08BC9E467047F8B5C04616
:08413000F8BC08BC9E46704774
:10413800C00900084E090008A20800085A0800082B
:10414800A20800088A090008A20800085A080008FE
:104158004E0900084E0900088A0900085A08000894
:10416800600800086008000860080008980900084E
:104178004E0900084E090008A20800085608000861
:10418800A20800088A090008A208000856080008C2
:104198004E0900084E0900088A0900085608000858
:1041A8006008000860080008600800089409000812
:1041B8004812000836120008141200083E120008BF
:1041C800141200080E150008141200083E12000808
:1041D80036120008361200080E1500083E120008B4
:1041E80000120008001200080012000886150008D6
:0841F800DCDDFF7F0100000087
:04420000E9000008C9
:04420400C1000008ED
:104208000000000000000000FF0F00000000000098
:104218000000000000000000000000000000000096
:104228000000000000000000000000000000000086
:104238000000050000000100D007C80000000000D1
:10424800B80470941400000000006A000C000020FC
:08425800007014470100000092
:04000005080040614E
:00000001FF
